{
  "_format": "hh-sol-artifact-1",
  "contractName": "VRFv2Consumer",
  "sourceName": "contracts/vrf.sol",
  "abi": [
    {
      "inputs": [
        {
          "internalType": "uint64",
          "name": "subscriptionId",
          "type": "uint64"
        }
      ],
      "stateMutability": "nonpayable",
      "type": "constructor"
    },
    {
      "inputs": [
        {
          "internalType": "address",
          "name": "have",
          "type": "address"
        },
        {
          "internalType": "address",
          "name": "want",
          "type": "address"
        }
      ],
      "name": "OnlyCoordinatorCanFulfill",
      "type": "error"
    },
    {
      "inputs": [],
      "name": "contractAddress",
      "outputs": [
        {
          "internalType": "address",
          "name": "",
          "type": "address"
        }
      ],
      "stateMutability": "view",
      "type": "function"
    },
    {
      "inputs": [],
      "name": "destroy",
      "outputs": [],
      "stateMutability": "payable",
      "type": "function"
    },
    {
      "inputs": [],
      "name": "getSubscriptionId",
      "outputs": [
        {
          "internalType": "uint64",
          "name": "",
          "type": "uint64"
        }
      ],
      "stateMutability": "view",
      "type": "function"
    },
    {
      "inputs": [],
      "name": "numWords",
      "outputs": [
        {
          "internalType": "uint32",
          "name": "",
          "type": "uint32"
        }
      ],
      "stateMutability": "view",
      "type": "function"
    },
    {
      "inputs": [],
      "name": "owner",
      "outputs": [
        {
          "internalType": "address",
          "name": "",
          "type": "address"
        }
      ],
      "stateMutability": "view",
      "type": "function"
    },
    {
      "inputs": [
        {
          "internalType": "uint256",
          "name": "requestId",
          "type": "uint256"
        }
      ],
      "name": "randomNumber",
      "outputs": [
        {
          "internalType": "uint256",
          "name": "",
          "type": "uint256"
        }
      ],
      "stateMutability": "view",
      "type": "function"
    },
    {
      "inputs": [
        {
          "internalType": "uint256",
          "name": "requestId",
          "type": "uint256"
        },
        {
          "internalType": "uint256[]",
          "name": "randomWords",
          "type": "uint256[]"
        }
      ],
      "name": "rawFulfillRandomWords",
      "outputs": [],
      "stateMutability": "nonpayable",
      "type": "function"
    },
    {
      "inputs": [],
      "name": "requestRandomWords",
      "outputs": [
        {
          "internalType": "uint256",
          "name": "",
          "type": "uint256"
        }
      ],
      "stateMutability": "nonpayable",
      "type": "function"
    },
    {
      "inputs": [],
      "name": "s_owner",
      "outputs": [
        {
          "internalType": "address",
          "name": "",
          "type": "address"
        }
      ],
      "stateMutability": "view",
      "type": "function"
    },
    {
      "inputs": [],
      "name": "senderAddress",
      "outputs": [
        {
          "internalType": "address",
          "name": "",
          "type": "address"
        }
      ],
      "stateMutability": "view",
      "type": "function"
    }
  ],
  "bytecode": "0x60a0604052737a1bac17ccc5b313516c5e16fb24f7659aa5ebed600160006101000a81548173ffffffffffffffffffffffffffffffffffffffff021916908373ffffffffffffffffffffffffffffffffffffffff1602179055507f4b09e658ed251bcafeebbc69400383d49f344ace09b9576fe248bb02c003fe9f60001b600255620186a0600360006101000a81548163ffffffff021916908363ffffffff16021790555060038060046101000a81548161ffff021916908361ffff1602179055506001600360066101000a81548163ffffffff021916908363ffffffff1602179055503480156100ef57600080fd5b5060405161103638038061103683398181016040528101906101119190610253565b600160009054906101000a900473ffffffffffffffffffffffffffffffffffffffff168073ffffffffffffffffffffffffffffffffffffffff1660808173ffffffffffffffffffffffffffffffffffffffff1660601b8152505050600160009054906101000a900473ffffffffffffffffffffffffffffffffffffffff166000806101000a81548173ffffffffffffffffffffffffffffffffffffffff021916908373ffffffffffffffffffffffffffffffffffffffff160217905550336003600a6101000a81548173ffffffffffffffffffffffffffffffffffffffff021916908373ffffffffffffffffffffffffffffffffffffffff16021790555080600060146101000a81548167ffffffffffffffff021916908367ffffffffffffffff160217905550506102a7565b60008151905061024d81610290565b92915050565b60006020828403121561026557600080fd5b60006102738482850161023e565b91505092915050565b600067ffffffffffffffff82169050919050565b6102998161027c565b81146102a457600080fd5b50565b60805160601c610d6a6102cc6000396000818161023501526102890152610d6a6000f3fe6080604052600436106100915760003560e01c8063de3d9fb711610059578063de3d9fb71461014a578063e0c8628914610175578063e3978240146101a0578063f6b4dfb4146101cb578063f970dd02146101f657610091565b80631fe543e3146100965780634fc84791146100bf5780637ccfd7fc146100ea57806383197ef0146101155780638da5cb5b1461011f575b600080fd5b3480156100a257600080fd5b506100bd60048036038101906100b89190610918565b610233565b005b3480156100cb57600080fd5b506100d46102f3565b6040516100e19190610a0c565b60405180910390f35b3480156100f657600080fd5b506100ff6102fb565b60405161010c9190610afe565b60405180910390f35b61011d610311565b005b34801561012b57600080fd5b506101346103a6565b6040516101419190610a0c565b60405180910390f35b34801561015657600080fd5b5061015f6103d0565b60405161016c9190610b19565b60405180910390f35b34801561018157600080fd5b5061018a610448565b6040516101979190610ae3565b60405180910390f35b3480156101ac57600080fd5b506101b56105ea565b6040516101c29190610a0c565b60405180910390f35b3480156101d757600080fd5b506101e0610610565b6040516101ed9190610a0c565b60405180910390f35b34801561020257600080fd5b5061021d600480360381019061021891906108c6565b610618565b60405161022a9190610ae3565b60405180910390f35b7f000000000000000000000000000000000000000000000000000000000000000073ffffffffffffffffffffffffffffffffffffffff163373ffffffffffffffffffffffffffffffffffffffff16146102e557337f00000000000000000000000000000000000000000000000000000000000000006040517f1cf993f40000000000000000000000000000000000000000000000000000000081526004016102dc929190610a27565b60405180910390fd5b6102ef828261074a565b5050565b600033905090565b600360069054906101000a900463ffffffff1681565b6003600a9054906101000a900473ffffffffffffffffffffffffffffffffffffffff1673ffffffffffffffffffffffffffffffffffffffff163373ffffffffffffffffffffffffffffffffffffffff161461036b57600080fd5b6003600a9054906101000a900473ffffffffffffffffffffffffffffffffffffffff1673ffffffffffffffffffffffffffffffffffffffff16ff5b60006003600a9054906101000a900473ffffffffffffffffffffffffffffffffffffffff16905090565b60006003600a9054906101000a900473ffffffffffffffffffffffffffffffffffffffff1673ffffffffffffffffffffffffffffffffffffffff163373ffffffffffffffffffffffffffffffffffffffff161461042c57600080fd5b600060149054906101000a900467ffffffffffffffff16905090565b60008060008054906101000a900473ffffffffffffffffffffffffffffffffffffffff1673ffffffffffffffffffffffffffffffffffffffff16635d3b1d30600254600060149054906101000a900467ffffffffffffffff16600360049054906101000a900461ffff16600360009054906101000a900463ffffffff16600360069054906101000a900463ffffffff166040518663ffffffff1660e01b81526004016104f8959493929190610a50565b602060405180830381600087803b15801561051257600080fd5b505af1158015610526573d6000803e3d6000fd5b505050506040513d601f19601f8201168201806040525081019061054a91906108ef565b9050336004600083815260200190815260200160002060006101000a81548173ffffffffffffffffffffffffffffffffffffffff021916908373ffffffffffffffffffffffffffffffffffffffff1602179055506000600560003373ffffffffffffffffffffffffffffffffffffffff1673ffffffffffffffffffffffffffffffffffffffff168152602001908152602001600020819055508091505090565b6003600a9054906101000a900473ffffffffffffffffffffffffffffffffffffffff1681565b600030905090565b600080600560003373ffffffffffffffffffffffffffffffffffffffff1673ffffffffffffffffffffffffffffffffffffffff1681526020019081526020016000205490503373ffffffffffffffffffffffffffffffffffffffff166004600085815260200190815260200160002060009054906101000a900473ffffffffffffffffffffffffffffffffffffffff1673ffffffffffffffffffffffffffffffffffffffff16146106fe576040517f08c379a00000000000000000000000000000000000000000000000000000000081526004016106f590610ac3565b60405180910390fd5b60008111610741576040517f08c379a000000000000000000000000000000000000000000000000000000000815260040161073890610aa3565b60405180910390fd5b80915050919050565b80600081518110610784577f4e487b7100000000000000000000000000000000000000000000000000000000600052603260045260246000fd5b6020026020010151600560006004600086815260200190815260200160002060009054906101000a900473ffffffffffffffffffffffffffffffffffffffff1673ffffffffffffffffffffffffffffffffffffffff1673ffffffffffffffffffffffffffffffffffffffff168152602001908152602001600020819055505050565b600061081961081484610b59565b610b34565b9050808382526020820190508285602086028201111561083857600080fd5b60005b85811015610868578161084e888261089c565b84526020840193506020830192505060018101905061083b565b5050509392505050565b600082601f83011261088357600080fd5b8135610893848260208601610806565b91505092915050565b6000813590506108ab81610d1d565b92915050565b6000815190506108c081610d1d565b92915050565b6000602082840312156108d857600080fd5b60006108e68482850161089c565b91505092915050565b60006020828403121561090157600080fd5b600061090f848285016108b1565b91505092915050565b6000806040838503121561092b57600080fd5b60006109398582860161089c565b925050602083013567ffffffffffffffff81111561095657600080fd5b61096285828601610872565b9150509250929050565b61097581610b96565b82525050565b61098481610ba8565b82525050565b6000610997602783610b85565b91506109a282610c7f565b604082019050919050565b60006109ba603283610b85565b91506109c582610cce565b604082019050919050565b6109d981610bb2565b82525050565b6109e881610be0565b82525050565b6109f781610bea565b82525050565b610a0681610bfa565b82525050565b6000602082019050610a21600083018461096c565b92915050565b6000604082019050610a3c600083018561096c565b610a49602083018461096c565b9392505050565b600060a082019050610a65600083018861097b565b610a7260208301876109fd565b610a7f60408301866109d0565b610a8c60608301856109ee565b610a9960808301846109ee565b9695505050505050565b60006020820190508181036000830152610abc8161098a565b9050919050565b60006020820190508181036000830152610adc816109ad565b9050919050565b6000602082019050610af860008301846109df565b92915050565b6000602082019050610b1360008301846109ee565b92915050565b6000602082019050610b2e60008301846109fd565b92915050565b6000610b3e610b4f565b9050610b4a8282610c0e565b919050565b6000604051905090565b600067ffffffffffffffff821115610b7457610b73610c3f565b5b602082029050602081019050919050565b600082825260208201905092915050565b6000610ba182610bc0565b9050919050565b6000819050919050565b600061ffff82169050919050565b600073ffffffffffffffffffffffffffffffffffffffff82169050919050565b6000819050919050565b600063ffffffff82169050919050565b600067ffffffffffffffff82169050919050565b610c1782610c6e565b810181811067ffffffffffffffff82111715610c3657610c35610c3f565b5b80604052505050565b7f4e487b7100000000000000000000000000000000000000000000000000000000600052604160045260246000fd5b6000601f19601f8301169050919050565b7f52616e646f6d206e756d6265722072657175657374207374696c6c20696e207060008201527f726f677265737300000000000000000000000000000000000000000000000000602082015250565b7f57726f6e67207265717565737449642c20706c6561736520726571657374207260008201527f616e646f6d206e756d6265722066697273740000000000000000000000000000602082015250565b610d2681610be0565b8114610d3157600080fd5b5056fea26469706673582212202748f1ff68c78b8334909576cb2cee56189cb6b3fa031e0a69d0edf49fa87d1364736f6c63430008040033",
  "linkReferences": {},
  "deployedLinkReferences": {}
}