{
  "_format": "hh-sol-artifact-1",
  "contractName": "dNFT",
  "sourceName": "contracts/Dnft.sol",
  "abi": [
    {
      "inputs": [],
      "stateMutability": "nonpayable",
      "type": "constructor"
    },
    {
      "anonymous": false,
      "inputs": [
        {
          "indexed": true,
          "internalType": "address",
          "name": "owner",
          "type": "address"
        },
        {
          "indexed": true,
          "internalType": "address",
          "name": "approved",
          "type": "address"
        },
        {
          "indexed": true,
          "internalType": "uint256",
          "name": "tokenId",
          "type": "uint256"
        }
      ],
      "name": "Approval",
      "type": "event"
    },
    {
      "anonymous": false,
      "inputs": [
        {
          "indexed": true,
          "internalType": "address",
          "name": "owner",
          "type": "address"
        },
        {
          "indexed": true,
          "internalType": "address",
          "name": "operator",
          "type": "address"
        },
        {
          "indexed": false,
          "internalType": "bool",
          "name": "approved",
          "type": "bool"
        }
      ],
      "name": "ApprovalForAll",
      "type": "event"
    },
    {
      "anonymous": false,
      "inputs": [
        {
          "indexed": true,
          "internalType": "address",
          "name": "previousOwner",
          "type": "address"
        },
        {
          "indexed": true,
          "internalType": "address",
          "name": "newOwner",
          "type": "address"
        }
      ],
      "name": "OwnershipTransferred",
      "type": "event"
    },
    {
      "anonymous": false,
      "inputs": [
        {
          "indexed": true,
          "internalType": "address",
          "name": "from",
          "type": "address"
        },
        {
          "indexed": true,
          "internalType": "address",
          "name": "to",
          "type": "address"
        },
        {
          "indexed": true,
          "internalType": "uint256",
          "name": "tokenId",
          "type": "uint256"
        }
      ],
      "name": "Transfer",
      "type": "event"
    },
    {
      "inputs": [
        {
          "internalType": "address",
          "name": "to",
          "type": "address"
        },
        {
          "internalType": "uint256",
          "name": "tokenId",
          "type": "uint256"
        }
      ],
      "name": "approve",
      "outputs": [],
      "stateMutability": "nonpayable",
      "type": "function"
    },
    {
      "inputs": [
        {
          "internalType": "address",
          "name": "owner",
          "type": "address"
        }
      ],
      "name": "balanceOf",
      "outputs": [
        {
          "internalType": "uint256",
          "name": "",
          "type": "uint256"
        }
      ],
      "stateMutability": "view",
      "type": "function"
    },
    {
      "inputs": [
        {
          "internalType": "uint256",
          "name": "_interval",
          "type": "uint256"
        }
      ],
      "name": "changeInterval",
      "outputs": [],
      "stateMutability": "nonpayable",
      "type": "function"
    },
    {
      "inputs": [
        {
          "internalType": "uint256",
          "name": "_tokenId",
          "type": "uint256"
        }
      ],
      "name": "changeStageOne",
      "outputs": [],
      "stateMutability": "nonpayable",
      "type": "function"
    },
    {
      "inputs": [
        {
          "internalType": "uint256",
          "name": "tokenID",
          "type": "uint256"
        },
        {
          "internalType": "address",
          "name": "priceFeedAdd",
          "type": "address"
        }
      ],
      "name": "changeStagePricefeed",
      "outputs": [
        {
          "internalType": "int256",
          "name": "",
          "type": "int256"
        },
        {
          "internalType": "int256",
          "name": "",
          "type": "int256"
        },
        {
          "internalType": "int256",
          "name": "",
          "type": "int256"
        }
      ],
      "stateMutability": "nonpayable",
      "type": "function"
    },
    {
      "inputs": [
        {
          "internalType": "uint256",
          "name": "tokenID",
          "type": "uint256"
        }
      ],
      "name": "changeStageRandom",
      "outputs": [],
      "stateMutability": "nonpayable",
      "type": "function"
    },
    {
      "inputs": [
        {
          "internalType": "bytes",
          "name": "",
          "type": "bytes"
        }
      ],
      "name": "checkUpkeep",
      "outputs": [
        {
          "internalType": "bool",
          "name": "upkeepNeeded",
          "type": "bool"
        }
      ],
      "stateMutability": "view",
      "type": "function"
    },
    {
      "inputs": [],
      "name": "destroy",
      "outputs": [],
      "stateMutability": "payable",
      "type": "function"
    },
    {
      "inputs": [
        {
          "internalType": "uint256",
          "name": "tokenId",
          "type": "uint256"
        }
      ],
      "name": "getApproved",
      "outputs": [
        {
          "internalType": "address",
          "name": "",
          "type": "address"
        }
      ],
      "stateMutability": "view",
      "type": "function"
    },
    {
      "inputs": [],
      "name": "getInterval",
      "outputs": [
        {
          "internalType": "uint256",
          "name": "",
          "type": "uint256"
        }
      ],
      "stateMutability": "view",
      "type": "function"
    },
    {
      "inputs": [
        {
          "internalType": "uint256",
          "name": "_tokenId",
          "type": "uint256"
        }
      ],
      "name": "getStage",
      "outputs": [
        {
          "internalType": "uint256",
          "name": "",
          "type": "uint256"
        }
      ],
      "stateMutability": "view",
      "type": "function"
    },
    {
      "inputs": [
        {
          "internalType": "address",
          "name": "owner",
          "type": "address"
        },
        {
          "internalType": "address",
          "name": "operator",
          "type": "address"
        }
      ],
      "name": "isApprovedForAll",
      "outputs": [
        {
          "internalType": "bool",
          "name": "",
          "type": "bool"
        }
      ],
      "stateMutability": "view",
      "type": "function"
    },
    {
      "inputs": [],
      "name": "name",
      "outputs": [
        {
          "internalType": "string",
          "name": "",
          "type": "string"
        }
      ],
      "stateMutability": "view",
      "type": "function"
    },
    {
      "inputs": [],
      "name": "owner",
      "outputs": [
        {
          "internalType": "address",
          "name": "",
          "type": "address"
        }
      ],
      "stateMutability": "view",
      "type": "function"
    },
    {
      "inputs": [
        {
          "internalType": "uint256",
          "name": "tokenId",
          "type": "uint256"
        }
      ],
      "name": "ownerOf",
      "outputs": [
        {
          "internalType": "address",
          "name": "",
          "type": "address"
        }
      ],
      "stateMutability": "view",
      "type": "function"
    },
    {
      "inputs": [
        {
          "internalType": "bytes",
          "name": "",
          "type": "bytes"
        }
      ],
      "name": "performUpkeep",
      "outputs": [],
      "stateMutability": "nonpayable",
      "type": "function"
    },
    {
      "inputs": [],
      "name": "randomNumber",
      "outputs": [
        {
          "internalType": "uint256",
          "name": "",
          "type": "uint256"
        }
      ],
      "stateMutability": "view",
      "type": "function"
    },
    {
      "inputs": [],
      "name": "renounceOwnership",
      "outputs": [],
      "stateMutability": "nonpayable",
      "type": "function"
    },
    {
      "inputs": [],
      "name": "requestId",
      "outputs": [
        {
          "internalType": "uint256",
          "name": "",
          "type": "uint256"
        }
      ],
      "stateMutability": "view",
      "type": "function"
    },
    {
      "inputs": [],
      "name": "requestRandom",
      "outputs": [],
      "stateMutability": "nonpayable",
      "type": "function"
    },
    {
      "inputs": [
        {
          "internalType": "address",
          "name": "to",
          "type": "address"
        }
      ],
      "name": "safeMint",
      "outputs": [],
      "stateMutability": "nonpayable",
      "type": "function"
    },
    {
      "inputs": [
        {
          "internalType": "address",
          "name": "from",
          "type": "address"
        },
        {
          "internalType": "address",
          "name": "to",
          "type": "address"
        },
        {
          "internalType": "uint256",
          "name": "tokenId",
          "type": "uint256"
        }
      ],
      "name": "safeTransferFrom",
      "outputs": [],
      "stateMutability": "nonpayable",
      "type": "function"
    },
    {
      "inputs": [
        {
          "internalType": "address",
          "name": "from",
          "type": "address"
        },
        {
          "internalType": "address",
          "name": "to",
          "type": "address"
        },
        {
          "internalType": "uint256",
          "name": "tokenId",
          "type": "uint256"
        },
        {
          "internalType": "bytes",
          "name": "_data",
          "type": "bytes"
        }
      ],
      "name": "safeTransferFrom",
      "outputs": [],
      "stateMutability": "nonpayable",
      "type": "function"
    },
    {
      "inputs": [],
      "name": "senderAddress",
      "outputs": [
        {
          "internalType": "address",
          "name": "",
          "type": "address"
        }
      ],
      "stateMutability": "view",
      "type": "function"
    },
    {
      "inputs": [
        {
          "internalType": "address",
          "name": "operator",
          "type": "address"
        },
        {
          "internalType": "bool",
          "name": "approved",
          "type": "bool"
        }
      ],
      "name": "setApprovalForAll",
      "outputs": [],
      "stateMutability": "nonpayable",
      "type": "function"
    },
    {
      "inputs": [
        {
          "internalType": "address",
          "name": "contractAddress",
          "type": "address"
        }
      ],
      "name": "setVrfContract",
      "outputs": [],
      "stateMutability": "nonpayable",
      "type": "function"
    },
    {
      "inputs": [
        {
          "internalType": "bytes4",
          "name": "interfaceId",
          "type": "bytes4"
        }
      ],
      "name": "supportsInterface",
      "outputs": [
        {
          "internalType": "bool",
          "name": "",
          "type": "bool"
        }
      ],
      "stateMutability": "view",
      "type": "function"
    },
    {
      "inputs": [],
      "name": "symbol",
      "outputs": [
        {
          "internalType": "string",
          "name": "",
          "type": "string"
        }
      ],
      "stateMutability": "view",
      "type": "function"
    },
    {
      "inputs": [],
      "name": "thisAddress",
      "outputs": [
        {
          "internalType": "address",
          "name": "",
          "type": "address"
        }
      ],
      "stateMutability": "view",
      "type": "function"
    },
    {
      "inputs": [
        {
          "internalType": "uint256",
          "name": "tokenId",
          "type": "uint256"
        }
      ],
      "name": "tokenURI",
      "outputs": [
        {
          "internalType": "string",
          "name": "",
          "type": "string"
        }
      ],
      "stateMutability": "view",
      "type": "function"
    },
    {
      "inputs": [
        {
          "internalType": "address",
          "name": "from",
          "type": "address"
        },
        {
          "internalType": "address",
          "name": "to",
          "type": "address"
        },
        {
          "internalType": "uint256",
          "name": "tokenId",
          "type": "uint256"
        }
      ],
      "name": "transferFrom",
      "outputs": [],
      "stateMutability": "nonpayable",
      "type": "function"
    },
    {
      "inputs": [
        {
          "internalType": "address",
          "name": "newOwner",
          "type": "address"
        }
      ],
      "name": "transferOwnership",
      "outputs": [],
      "stateMutability": "nonpayable",
      "type": "function"
    },
    {
      "inputs": [],
      "name": "vrfGenerator",
      "outputs": [
        {
          "internalType": "address",
          "name": "",
          "type": "address"
        }
      ],
      "stateMutability": "view",
      "type": "function"
    }
  ],
  "bytecode": "0x6080604052604051806060016040528060405180608001604052806050815260200162004a2760509139815260200160405180608001604052806050815260200162004987605091398152602001604051806080016040528060508152602001620049d76050913981525060099060036200007c9291906200028b565b503480156200008a57600080fd5b506040518060400160405280600481526020017f646e6674000000000000000000000000000000000000000000000000000000008152506040518060400160405280600481526020017f646e66740000000000000000000000000000000000000000000000000000000081525081600090805190602001906200010f929190620002f2565b50806001908051906020019062000128929190620002f2565b5050506200014b6200013f620001bd60201b60201c565b620001c560201b60201c565b6064600a8190555042600b819055506000600c8190555073ec267adccdc192de82e6f78f794aa3a6e800b451600d60006101000a81548173ffffffffffffffffffffffffffffffffffffffff021916908373ffffffffffffffffffffffffffffffffffffffff16021790555062000475565b600033905090565b6000600760009054906101000a900473ffffffffffffffffffffffffffffffffffffffff16905081600760006101000a81548173ffffffffffffffffffffffffffffffffffffffff021916908373ffffffffffffffffffffffffffffffffffffffff1602179055508173ffffffffffffffffffffffffffffffffffffffff168173ffffffffffffffffffffffffffffffffffffffff167f8be0079c531659141344cd1fd0a4f28419497f9722a3daafe3b4186f6b6457e060405160405180910390a35050565b828054828255906000526020600020908101928215620002df579160200282015b82811115620002de578251829080519060200190620002cd929190620002f2565b5091602001919060010190620002ac565b5b509050620002ee919062000383565b5090565b828054620003009062000410565b90600052602060002090601f01602090048101928262000324576000855562000370565b82601f106200033f57805160ff191683800117855562000370565b8280016001018555821562000370579182015b828111156200036f57825182559160200191906001019062000352565b5b5090506200037f9190620003ab565b5090565b5b80821115620003a757600081816200039d9190620003ca565b5060010162000384565b5090565b5b80821115620003c6576000816000905550600101620003ac565b5090565b508054620003d89062000410565b6000825580601f10620003ec57506200040d565b601f0160209004906000526020600020908101906200040c9190620003ab565b5b50565b600060028204905060018216806200042957607f821691505b6020821081141562000440576200043f62000446565b5b50919050565b7f4e487b7100000000000000000000000000000000000000000000000000000000600052602260045260246000fd5b61450280620004856000396000f3fe6080604052600436106101ed5760003560e01c806363c756071161010d578063a22cb465116100a0578063d4dca69b1161006f578063d4dca69b146106ef578063d6e544941461071a578063da9f755014610743578063e985e9c51461075a578063f2fde38b14610797576101ed565b8063a22cb46514610635578063b88d4fde1461065e578063c87b56dd14610687578063ccbac9f5146106c4576101ed565b806383197ef0116100dc57806383197ef0146105aa5780638da5cb5b146105b457806391ad27b4146105df57806395d89b411461060a576101ed565b806363c75607146104f05780636e04ff0d1461051957806370a0823114610556578063715018a614610593576101ed565b80632e325020116101855780634585e33b116101545780634585e33b146104345780634fc847911461045d5780635ef73b1f146104885780636352211e146104b3576101ed565b80632e3250201461037c5780633ed1ec64146103b957806340d097c3146103e257806342842e0e1461040b576101ed565b8063095ea7b3116101c1578063095ea7b3146102c257806309e87ba7146102eb57806313db400d1461032a57806323b872dd14610353576101ed565b80626d6cae146101f257806301ffc9a71461021d57806306fdde031461025a578063081812fc14610285575b600080fd5b3480156101fe57600080fd5b506102076107c0565b6040516102149190613993565b60405180910390f35b34801561022957600080fd5b50610244600480360381019061023f9190612fde565b6107c6565b604051610251919061367f565b60405180910390f35b34801561026657600080fd5b5061026f6108a8565b60405161027c91906136d1565b60405180910390f35b34801561029157600080fd5b506102ac60048036038101906102a79190613075565b61093a565b6040516102b99190613618565b60405180910390f35b3480156102ce57600080fd5b506102e960048036038101906102e49190612fa2565b6109bf565b005b3480156102f757600080fd5b50610312600480360381019061030d91906130c7565b610ad7565b6040516103219392919061369a565b60405180910390f35b34801561033657600080fd5b50610351600480360381019061034c9190612e0e565b610da4565b005b34801561035f57600080fd5b5061037a60048036038101906103759190612e9c565b610ef5565b005b34801561038857600080fd5b506103a3600480360381019061039e9190613075565b610f55565b6040516103b09190613993565b60405180910390f35b3480156103c557600080fd5b506103e060048036038101906103db9190613075565b611045565b005b3480156103ee57600080fd5b5061040960048036038101906104049190612e0e565b61114e565b005b34801561041757600080fd5b50610432600480360381019061042d9190612e9c565b6112cd565b005b34801561044057600080fd5b5061045b60048036038101906104569190613030565b6112ed565b005b34801561046957600080fd5b5061047261131a565b60405161047f9190613618565b60405180910390f35b34801561049457600080fd5b5061049d6113c1565b6040516104aa9190613618565b60405180910390f35b3480156104bf57600080fd5b506104da60048036038101906104d59190613075565b6113e7565b6040516104e79190613618565b60405180910390f35b3480156104fc57600080fd5b5061051760048036038101906105129190613075565b611499565b005b34801561052557600080fd5b50610540600480360381019061053b9190613030565b6114a3565b60405161054d919061367f565b60405180910390f35b34801561056257600080fd5b5061057d60048036038101906105789190612e0e565b6114bf565b60405161058a9190613993565b60405180910390f35b34801561059f57600080fd5b506105a8611577565b005b6105b26115ff565b005b3480156105c057600080fd5b506105c96116a0565b6040516105d69190613618565b60405180910390f35b3480156105eb57600080fd5b506105f46116ca565b6040516106019190613993565b60405180910390f35b34801561061657600080fd5b5061061f6116d4565b60405161062c91906136d1565b60405180910390f35b34801561064157600080fd5b5061065c60048036038101906106579190612f66565b611766565b005b34801561066a57600080fd5b5061068560048036038101906106809190612eeb565b61177c565b005b34801561069357600080fd5b506106ae60048036038101906106a99190613075565b6117de565b6040516106bb91906136d1565b60405180910390f35b3480156106d057600080fd5b506106d96117f0565b6040516106e69190613993565b60405180910390f35b3480156106fb57600080fd5b506107046118a4565b6040516107119190613618565b60405180910390f35b34801561072657600080fd5b50610741600480360381019061073c9190613075565b6118ac565b005b34801561074f57600080fd5b506107586119ef565b005b34801561076657600080fd5b50610781600480360381019061077c9190612e60565b611a99565b60405161078e919061367f565b60405180910390f35b3480156107a357600080fd5b506107be60048036038101906107b99190612e0e565b611b2d565b005b600c5481565b60007f80ac58cd000000000000000000000000000000000000000000000000000000007bffffffffffffffffffffffffffffffffffffffffffffffffffffffff1916827bffffffffffffffffffffffffffffffffffffffffffffffffffffffff1916148061089157507f5b5e139f000000000000000000000000000000000000000000000000000000007bffffffffffffffffffffffffffffffffffffffffffffffffffffffff1916827bffffffffffffffffffffffffffffffffffffffffffffffffffffffff1916145b806108a157506108a082611c25565b5b9050919050565b6060600080546108b790613cd0565b80601f01602080910402602001604051908101604052809291908181526020018280546108e390613cd0565b80156109305780601f1061090557610100808354040283529160200191610930565b820191906000526020600020905b81548152906001019060200180831161091357829003601f168201915b5050505050905090565b600061094582611c8f565b610984576040517f08c379a000000000000000000000000000000000000000000000000000000000815260040161097b906138d3565b60405180910390fd5b6004600083815260200190815260200160002060009054906101000a900473ffffffffffffffffffffffffffffffffffffffff169050919050565b60006109ca826113e7565b90508073ffffffffffffffffffffffffffffffffffffffff168373ffffffffffffffffffffffffffffffffffffffff161415610a3b576040517f08c379a0000000000000000000000000000000000000000000000000000000008152600401610a3290613933565b60405180910390fd5b8073ffffffffffffffffffffffffffffffffffffffff16610a5a611cfb565b73ffffffffffffffffffffffffffffffffffffffff161480610a895750610a8881610a83611cfb565b611a99565b5b610ac8576040517f08c379a0000000000000000000000000000000000000000000000000000000008152600401610abf906137f3565b60405180910390fd5b610ad28383611d03565b505050565b6000806000808490506000808273ffffffffffffffffffffffffffffffffffffffff1663feaf968c6040518163ffffffff1660e01b815260040160a06040518083038186803b158015610b2957600080fd5b505afa158015610b3d573d6000803e3d6000fd5b505050506040513d601f19601f82011682018060405250810190610b619190613103565b505050915091506000808473ffffffffffffffffffffffffffffffffffffffff16639a6fc8f5600186610b949190613bc6565b6040518263ffffffff1660e01b8152600401610bb091906139ae565b60a06040518083038186803b158015610bc857600080fd5b505afa158015610bdc573d6000803e3d6000fd5b505050506040513d601f19601f82011682018060405250810190610c009190613103565b5093505092505060008111610c4a576040517f08c379a0000000000000000000000000000000000000000000000000000000008152600401610c4190613953565b60405180910390fd5b6000828413610c79577fffffffffffffffffffffffffffffffffffffffffffffffffffffffffffffffff610c7c565b60015b90506000600980549050905060008183610c958f610f55565b84610ca09190613a77565b610caa9190613a77565b610cb49190613d7c565b9050610d8c8d60098381548110610cf4577f4e487b7100000000000000000000000000000000000000000000000000000000600052603260045260246000fd5b906000526020600020018054610d0990613cd0565b80601f0160208091040260200160405190810160405280929190818152602001828054610d3590613cd0565b8015610d825780601f10610d5757610100808354040283529160200191610d82565b820191906000526020600020905b815481529060010190602001808311610d6557829003601f168201915b5050505050611dbc565b8286869a509a509a5050505050505050509250925092565b610dac611cfb565b73ffffffffffffffffffffffffffffffffffffffff16610dca6116a0565b73ffffffffffffffffffffffffffffffffffffffff1614610e20576040517f08c379a0000000000000000000000000000000000000000000000000000000008152600401610e17906138f3565b60405180910390fd5b600d60009054906101000a900473ffffffffffffffffffffffffffffffffffffffff1673ffffffffffffffffffffffffffffffffffffffff168173ffffffffffffffffffffffffffffffffffffffff161415610eb1576040517f08c379a0000000000000000000000000000000000000000000000000000000008152600401610ea8906137b3565b60405180910390fd5b80600d60006101000a81548173ffffffffffffffffffffffffffffffffffffffff021916908373ffffffffffffffffffffffffffffffffffffffff16021790555050565b610f06610f00611cfb565b82611e30565b610f45576040517f08c379a0000000000000000000000000000000000000000000000000000000008152600401610f3c90613973565b60405180910390fd5b610f50838383611f0e565b505050565b600080610f61836117de565b604051602001610f7191906135c6565b6040516020818303038152906040528051906020012090506000600980549050905060005b8181101561102d578260098281548110610fd9577f4e487b7100000000000000000000000000000000000000000000000000000000600052603260045260246000fd5b90600052602060002001604051602001610ff39190613601565b60405160208183030381529060405280519060200120141561101a57809350505050611040565b808061102590613d33565b915050610f96565b5060018161103b9190613b0b565b925050505b919050565b6000600980549050600161105884610f55565b6110629190613b0b565b61106c9190613dad565b90506000600982815481106110aa577f4e487b7100000000000000000000000000000000000000000000000000000000600052603260045260246000fd5b9060005260206000200180546110bf90613cd0565b80601f01602080910402602001604051908101604052809291908181526020018280546110eb90613cd0565b80156111385780601f1061110d57610100808354040283529160200191611138565b820191906000526020600020905b81548152906001019060200180831161111b57829003601f168201915b505050505090506111498382611dbc565b505050565b611156611cfb565b73ffffffffffffffffffffffffffffffffffffffff166111746116a0565b73ffffffffffffffffffffffffffffffffffffffff16146111ca576040517f08c379a00000000000000000000000000000000000000000000000000000000081526004016111c1906138f3565b60405180910390fd5b60006111d66008612175565b905060006009600081548110611215577f4e487b7100000000000000000000000000000000000000000000000000000000600052603260045260246000fd5b90600052602060002001805461122a90613cd0565b80601f016020809104026020016040519081016040528092919081815260200182805461125690613cd0565b80156112a35780601f10611278576101008083540402835291602001916112a3565b820191906000526020600020905b81548152906001019060200180831161128657829003601f168201915b505050505090506112b46008612183565b6112be8383612199565b6112c88282611dbc565b505050565b6112e88383836040518060200160405280600081525061177c565b505050565b600a54600b54426112fe9190613b92565b11156113165742600b819055506113156000611045565b5b5050565b6000600d60009054906101000a900473ffffffffffffffffffffffffffffffffffffffff1673ffffffffffffffffffffffffffffffffffffffff16634fc847916040518163ffffffff1660e01b815260040160206040518083038186803b15801561138457600080fd5b505afa158015611398573d6000803e3d6000fd5b505050506040513d601f19601f820116820180604052508101906113bc9190612e37565b905090565b600d60009054906101000a900473ffffffffffffffffffffffffffffffffffffffff1681565b6000806002600084815260200190815260200160002060009054906101000a900473ffffffffffffffffffffffffffffffffffffffff169050600073ffffffffffffffffffffffffffffffffffffffff168173ffffffffffffffffffffffffffffffffffffffff161415611490576040517f08c379a000000000000000000000000000000000000000000000000000000000815260040161148790613833565b60405180910390fd5b80915050919050565b80600a8190555050565b6000600a54600b54426114b69190613b92565b11905092915050565b60008073ffffffffffffffffffffffffffffffffffffffff168273ffffffffffffffffffffffffffffffffffffffff161415611530576040517f08c379a000000000000000000000000000000000000000000000000000000000815260040161152790613813565b60405180910390fd5b600360008373ffffffffffffffffffffffffffffffffffffffff1673ffffffffffffffffffffffffffffffffffffffff168152602001908152602001600020549050919050565b61157f611cfb565b73ffffffffffffffffffffffffffffffffffffffff1661159d6116a0565b73ffffffffffffffffffffffffffffffffffffffff16146115f3576040517f08c379a00000000000000000000000000000000000000000000000000000000081526004016115ea906138f3565b60405180910390fd5b6115fd60006121b7565b565b611607611cfb565b73ffffffffffffffffffffffffffffffffffffffff166116256116a0565b73ffffffffffffffffffffffffffffffffffffffff161461167b576040517f08c379a0000000000000000000000000000000000000000000000000000000008152600401611672906138f3565b60405180910390fd5b60006116856116a0565b90508073ffffffffffffffffffffffffffffffffffffffff16ff5b6000600760009054906101000a900473ffffffffffffffffffffffffffffffffffffffff16905090565b6000600a54905090565b6060600180546116e390613cd0565b80601f016020809104026020016040519081016040528092919081815260200182805461170f90613cd0565b801561175c5780601f106117315761010080835404028352916020019161175c565b820191906000526020600020905b81548152906001019060200180831161173f57829003601f168201915b5050505050905090565b611778611771611cfb565b838361227d565b5050565b61178d611787611cfb565b83611e30565b6117cc576040517f08c379a00000000000000000000000000000000000000000000000000000000081526004016117c390613973565b60405180910390fd5b6117d8848484846123ea565b50505050565b60606117e982612446565b9050919050565b6000600d60009054906101000a900473ffffffffffffffffffffffffffffffffffffffff1673ffffffffffffffffffffffffffffffffffffffff1663f970dd02600c546040518263ffffffff1660e01b815260040161184f9190613993565b60206040518083038186803b15801561186757600080fd5b505afa15801561187b573d6000803e3d6000fd5b505050506040513d601f19601f8201168201806040525081019061189f919061309e565b905090565b600030905090565b6000600c54116118f1576040517f08c379a00000000000000000000000000000000000000000000000000000000081526004016118e890613873565b60405180910390fd5b60006009805490506119016117f0565b61190b9190613dad565b90506000600c819055506119eb8260098381548110611953577f4e487b7100000000000000000000000000000000000000000000000000000000600052603260045260246000fd5b90600052602060002001805461196890613cd0565b80601f016020809104026020016040519081016040528092919081815260200182805461199490613cd0565b80156119e15780601f106119b6576101008083540402835291602001916119e1565b820191906000526020600020905b8154815290600101906020018083116119c457829003601f168201915b5050505050611dbc565b5050565b600d60009054906101000a900473ffffffffffffffffffffffffffffffffffffffff1673ffffffffffffffffffffffffffffffffffffffff1663e0c862896040518163ffffffff1660e01b8152600401602060405180830381600087803b158015611a5957600080fd5b505af1158015611a6d573d6000803e3d6000fd5b505050506040513d601f19601f82011682018060405250810190611a91919061309e565b600c81905550565b6000600560008473ffffffffffffffffffffffffffffffffffffffff1673ffffffffffffffffffffffffffffffffffffffff16815260200190815260200160002060008373ffffffffffffffffffffffffffffffffffffffff1673ffffffffffffffffffffffffffffffffffffffff16815260200190815260200160002060009054906101000a900460ff16905092915050565b611b35611cfb565b73ffffffffffffffffffffffffffffffffffffffff16611b536116a0565b73ffffffffffffffffffffffffffffffffffffffff1614611ba9576040517f08c379a0000000000000000000000000000000000000000000000000000000008152600401611ba0906138f3565b60405180910390fd5b600073ffffffffffffffffffffffffffffffffffffffff168173ffffffffffffffffffffffffffffffffffffffff161415611c19576040517f08c379a0000000000000000000000000000000000000000000000000000000008152600401611c1090613713565b60405180910390fd5b611c22816121b7565b50565b60007f01ffc9a7000000000000000000000000000000000000000000000000000000007bffffffffffffffffffffffffffffffffffffffffffffffffffffffff1916827bffffffffffffffffffffffffffffffffffffffffffffffffffffffff1916149050919050565b60008073ffffffffffffffffffffffffffffffffffffffff166002600084815260200190815260200160002060009054906101000a900473ffffffffffffffffffffffffffffffffffffffff1673ffffffffffffffffffffffffffffffffffffffff1614159050919050565b600033905090565b816004600083815260200190815260200160002060006101000a81548173ffffffffffffffffffffffffffffffffffffffff021916908373ffffffffffffffffffffffffffffffffffffffff160217905550808273ffffffffffffffffffffffffffffffffffffffff16611d76836113e7565b73ffffffffffffffffffffffffffffffffffffffff167f8c5be1e5ebec7d5bd14f71427d1e84f3dd0314c0f7b2291e5b200ac8c7c3b92560405160405180910390a45050565b611dc582611c8f565b611e04576040517f08c379a0000000000000000000000000000000000000000000000000000000008152600401611dfb90613853565b60405180910390fd5b80600660008481526020019081526020016000209080519060200190611e2b929190612bfc565b505050565b6000611e3b82611c8f565b611e7a576040517f08c379a0000000000000000000000000000000000000000000000000000000008152600401611e71906137d3565b60405180910390fd5b6000611e85836113e7565b90508073ffffffffffffffffffffffffffffffffffffffff168473ffffffffffffffffffffffffffffffffffffffff161480611ec75750611ec68185611a99565b5b80611f0557508373ffffffffffffffffffffffffffffffffffffffff16611eed8461093a565b73ffffffffffffffffffffffffffffffffffffffff16145b91505092915050565b8273ffffffffffffffffffffffffffffffffffffffff16611f2e826113e7565b73ffffffffffffffffffffffffffffffffffffffff1614611f84576040517f08c379a0000000000000000000000000000000000000000000000000000000008152600401611f7b90613733565b60405180910390fd5b600073ffffffffffffffffffffffffffffffffffffffff168273ffffffffffffffffffffffffffffffffffffffff161415611ff4576040517f08c379a0000000000000000000000000000000000000000000000000000000008152600401611feb90613773565b60405180910390fd5b611fff838383612598565b61200a600082611d03565b6001600360008573ffffffffffffffffffffffffffffffffffffffff1673ffffffffffffffffffffffffffffffffffffffff168152602001908152602001600020600082825461205a9190613b92565b925050819055506001600360008473ffffffffffffffffffffffffffffffffffffffff1673ffffffffffffffffffffffffffffffffffffffff16815260200190815260200160002060008282546120b19190613b0b565b92505081905550816002600083815260200190815260200160002060006101000a81548173ffffffffffffffffffffffffffffffffffffffff021916908373ffffffffffffffffffffffffffffffffffffffff160217905550808273ffffffffffffffffffffffffffffffffffffffff168473ffffffffffffffffffffffffffffffffffffffff167fddf252ad1be2c89b69c2b068fc378daa952ba7f163c4a11628f55a4df523b3ef60405160405180910390a461217083838361259d565b505050565b600081600001549050919050565b6001816000016000828254019250508190555050565b6121b38282604051806020016040528060008152506125a2565b5050565b6000600760009054906101000a900473ffffffffffffffffffffffffffffffffffffffff16905081600760006101000a81548173ffffffffffffffffffffffffffffffffffffffff021916908373ffffffffffffffffffffffffffffffffffffffff1602179055508173ffffffffffffffffffffffffffffffffffffffff168173ffffffffffffffffffffffffffffffffffffffff167f8be0079c531659141344cd1fd0a4f28419497f9722a3daafe3b4186f6b6457e060405160405180910390a35050565b8173ffffffffffffffffffffffffffffffffffffffff168373ffffffffffffffffffffffffffffffffffffffff1614156122ec576040517f08c379a00000000000000000000000000000000000000000000000000000000081526004016122e390613793565b60405180910390fd5b80600560008573ffffffffffffffffffffffffffffffffffffffff1673ffffffffffffffffffffffffffffffffffffffff16815260200190815260200160002060008473ffffffffffffffffffffffffffffffffffffffff1673ffffffffffffffffffffffffffffffffffffffff16815260200190815260200160002060006101000a81548160ff0219169083151502179055508173ffffffffffffffffffffffffffffffffffffffff168373ffffffffffffffffffffffffffffffffffffffff167f17307eab39ab6107e8899845ad3d59bd9653f200f220920489ca2b5937696c31836040516123dd919061367f565b60405180910390a3505050565b6123f5848484611f0e565b612401848484846125fd565b612440576040517f08c379a0000000000000000000000000000000000000000000000000000000008152600401612437906136f3565b60405180910390fd5b50505050565b606061245182611c8f565b612490576040517f08c379a0000000000000000000000000000000000000000000000000000000008152600401612487906138b3565b60405180910390fd5b60006006600084815260200190815260200160002080546124b090613cd0565b80601f01602080910402602001604051908101604052809291908181526020018280546124dc90613cd0565b80156125295780601f106124fe57610100808354040283529160200191612529565b820191906000526020600020905b81548152906001019060200180831161250c57829003601f168201915b50505050509050600061253a612794565b9050600081511415612550578192505050612593565b60008251111561258557808260405160200161256d9291906135dd565b60405160208183030381529060405292505050612593565b61258e846127ab565b925050505b919050565b505050565b505050565b6125ac8383612852565b6125b960008484846125fd565b6125f8576040517f08c379a00000000000000000000000000000000000000000000000000000000081526004016125ef906136f3565b60405180910390fd5b505050565b600061261e8473ffffffffffffffffffffffffffffffffffffffff16612a2c565b15612787578373ffffffffffffffffffffffffffffffffffffffff1663150b7a02612647611cfb565b8786866040518563ffffffff1660e01b81526004016126699493929190613633565b602060405180830381600087803b15801561268357600080fd5b505af19250505080156126b457506040513d601f19601f820116820180604052508101906126b19190613007565b60015b612737573d80600081146126e4576040519150601f19603f3d011682016040523d82523d6000602084013e6126e9565b606091505b5060008151141561272f576040517f08c379a0000000000000000000000000000000000000000000000000000000008152600401612726906136f3565b60405180910390fd5b805181602001fd5b63150b7a0260e01b7bffffffffffffffffffffffffffffffffffffffffffffffffffffffff1916817bffffffffffffffffffffffffffffffffffffffffffffffffffffffff19161491505061278c565b600190505b949350505050565b606060405180602001604052806000815250905090565b60606127b682611c8f565b6127f5576040517f08c379a00000000000000000000000000000000000000000000000000000000081526004016127ec90613913565b60405180910390fd5b60006127ff612794565b9050600081511161281f576040518060200160405280600081525061284a565b8061282984612a4f565b60405160200161283a9291906135dd565b6040516020818303038152906040525b915050919050565b600073ffffffffffffffffffffffffffffffffffffffff168273ffffffffffffffffffffffffffffffffffffffff1614156128c2576040517f08c379a00000000000000000000000000000000000000000000000000000000081526004016128b990613893565b60405180910390fd5b6128cb81611c8f565b1561290b576040517f08c379a000000000000000000000000000000000000000000000000000000000815260040161290290613753565b60405180910390fd5b61291760008383612598565b6001600360008473ffffffffffffffffffffffffffffffffffffffff1673ffffffffffffffffffffffffffffffffffffffff16815260200190815260200160002060008282546129679190613b0b565b92505081905550816002600083815260200190815260200160002060006101000a81548173ffffffffffffffffffffffffffffffffffffffff021916908373ffffffffffffffffffffffffffffffffffffffff160217905550808273ffffffffffffffffffffffffffffffffffffffff16600073ffffffffffffffffffffffffffffffffffffffff167fddf252ad1be2c89b69c2b068fc378daa952ba7f163c4a11628f55a4df523b3ef60405160405180910390a4612a286000838361259d565b5050565b6000808273ffffffffffffffffffffffffffffffffffffffff163b119050919050565b60606000821415612a97576040518060400160405280600181526020017f30000000000000000000000000000000000000000000000000000000000000008152509050612bf7565b600082905060005b60008214612ac9578080612ab290613d33565b915050600a82612ac29190613b61565b9150612a9f565b60008167ffffffffffffffff811115612b0b577f4e487b7100000000000000000000000000000000000000000000000000000000600052604160045260246000fd5b6040519080825280601f01601f191660200182016040528015612b3d5781602001600182028036833780820191505090505b5090505b60008514612bf057600182612b569190613b92565b9150600a85612b659190613dad565b6030612b719190613b0b565b60f81b818381518110612bad577f4e487b7100000000000000000000000000000000000000000000000000000000600052603260045260246000fd5b60200101907effffffffffffffffffffffffffffffffffffffffffffffffffffffffffffff1916908160001a905350600a85612be99190613b61565b9450612b41565b8093505050505b919050565b828054612c0890613cd0565b90600052602060002090601f016020900481019282612c2a5760008555612c71565b82601f10612c4357805160ff1916838001178555612c71565b82800160010185558215612c71579182015b82811115612c70578251825591602001919060010190612c55565b5b509050612c7e9190612c82565b5090565b5b80821115612c9b576000816000905550600101612c83565b5090565b6000612cb2612cad846139ee565b6139c9565b905082815260208101848484011115612cca57600080fd5b612cd5848285613c8e565b509392505050565b600081359050612cec81614442565b92915050565b600081519050612d0181614442565b92915050565b600081359050612d1681614459565b92915050565b600081359050612d2b81614470565b92915050565b600081519050612d4081614470565b92915050565b60008083601f840112612d5857600080fd5b8235905067ffffffffffffffff811115612d7157600080fd5b602083019150836001820283011115612d8957600080fd5b9250929050565b600082601f830112612da157600080fd5b8135612db1848260208601612c9f565b91505092915050565b600081519050612dc981614487565b92915050565b600081359050612dde8161449e565b92915050565b600081519050612df38161449e565b92915050565b600081519050612e08816144b5565b92915050565b600060208284031215612e2057600080fd5b6000612e2e84828501612cdd565b91505092915050565b600060208284031215612e4957600080fd5b6000612e5784828501612cf2565b91505092915050565b60008060408385031215612e7357600080fd5b6000612e8185828601612cdd565b9250506020612e9285828601612cdd565b9150509250929050565b600080600060608486031215612eb157600080fd5b6000612ebf86828701612cdd565b9350506020612ed086828701612cdd565b9250506040612ee186828701612dcf565b9150509250925092565b60008060008060808587031215612f0157600080fd5b6000612f0f87828801612cdd565b9450506020612f2087828801612cdd565b9350506040612f3187828801612dcf565b925050606085013567ffffffffffffffff811115612f4e57600080fd5b612f5a87828801612d90565b91505092959194509250565b60008060408385031215612f7957600080fd5b6000612f8785828601612cdd565b9250506020612f9885828601612d07565b9150509250929050565b60008060408385031215612fb557600080fd5b6000612fc385828601612cdd565b9250506020612fd485828601612dcf565b9150509250929050565b600060208284031215612ff057600080fd5b6000612ffe84828501612d1c565b91505092915050565b60006020828403121561301957600080fd5b600061302784828501612d31565b91505092915050565b6000806020838503121561304357600080fd5b600083013567ffffffffffffffff81111561305d57600080fd5b61306985828601612d46565b92509250509250929050565b60006020828403121561308757600080fd5b600061309584828501612dcf565b91505092915050565b6000602082840312156130b057600080fd5b60006130be84828501612de4565b91505092915050565b600080604083850312156130da57600080fd5b60006130e885828601612dcf565b92505060206130f985828601612cdd565b9150509250929050565b600080600080600060a0868803121561311b57600080fd5b600061312988828901612df9565b955050602061313a88828901612dba565b945050604061314b88828901612de4565b935050606061315c88828901612de4565b925050608061316d88828901612df9565b9150509295509295909350565b61318381613bfa565b82525050565b61319281613c0c565b82525050565b60006131a382613a34565b6131ad8185613a4a565b93506131bd818560208601613c9d565b6131c681613e9a565b840191505092915050565b6131da81613c44565b82525050565b60006131eb82613a3f565b6131f58185613a5b565b9350613205818560208601613c9d565b61320e81613e9a565b840191505092915050565b600061322482613a3f565b61322e8185613a6c565b935061323e818560208601613c9d565b80840191505092915050565b6000815461325781613cd0565b6132618186613a6c565b9450600182166000811461327c576001811461328d576132c0565b60ff198316865281860193506132c0565b61329685613a1f565b60005b838110156132b857815481890152600182019150602081019050613299565b838801955050505b50505092915050565b60006132d6603283613a5b565b91506132e182613eab565b604082019050919050565b60006132f9602683613a5b565b915061330482613efa565b604082019050919050565b600061331c602583613a5b565b915061332782613f49565b604082019050919050565b600061333f601c83613a5b565b915061334a82613f98565b602082019050919050565b6000613362602483613a5b565b915061336d82613fc1565b604082019050919050565b6000613385601983613a5b565b915061339082614010565b602082019050919050565b60006133a8601883613a5b565b91506133b382614039565b602082019050919050565b60006133cb602c83613a5b565b91506133d682614062565b604082019050919050565b60006133ee603883613a5b565b91506133f9826140b1565b604082019050919050565b6000613411602a83613a5b565b915061341c82614100565b604082019050919050565b6000613434602983613a5b565b915061343f8261414f565b604082019050919050565b6000613457602e83613a5b565b91506134628261419e565b604082019050919050565b600061347a602283613a5b565b9150613485826141ed565b604082019050919050565b600061349d602083613a5b565b91506134a88261423c565b602082019050919050565b60006134c0603183613a5b565b91506134cb82614265565b604082019050919050565b60006134e3602c83613a5b565b91506134ee826142b4565b604082019050919050565b6000613506602083613a5b565b915061351182614303565b602082019050919050565b6000613529602f83613a5b565b91506135348261432c565b604082019050919050565b600061354c602183613a5b565b91506135578261437b565b604082019050919050565b600061356f601283613a5b565b915061357a826143ca565b602082019050919050565b6000613592603183613a5b565b915061359d826143f3565b604082019050919050565b6135b181613c6e565b82525050565b6135c081613c78565b82525050565b60006135d28284613219565b915081905092915050565b60006135e98285613219565b91506135f58284613219565b91508190509392505050565b600061360d828461324a565b915081905092915050565b600060208201905061362d600083018461317a565b92915050565b6000608082019050613648600083018761317a565b613655602083018661317a565b61366260408301856135a8565b81810360608301526136748184613198565b905095945050505050565b60006020820190506136946000830184613189565b92915050565b60006060820190506136af60008301866131d1565b6136bc60208301856131d1565b6136c960408301846131d1565b949350505050565b600060208201905081810360008301526136eb81846131e0565b905092915050565b6000602082019050818103600083015261370c816132c9565b9050919050565b6000602082019050818103600083015261372c816132ec565b9050919050565b6000602082019050818103600083015261374c8161330f565b9050919050565b6000602082019050818103600083015261376c81613332565b9050919050565b6000602082019050818103600083015261378c81613355565b9050919050565b600060208201905081810360008301526137ac81613378565b9050919050565b600060208201905081810360008301526137cc8161339b565b9050919050565b600060208201905081810360008301526137ec816133be565b9050919050565b6000602082019050818103600083015261380c816133e1565b9050919050565b6000602082019050818103600083015261382c81613404565b9050919050565b6000602082019050818103600083015261384c81613427565b9050919050565b6000602082019050818103600083015261386c8161344a565b9050919050565b6000602082019050818103600083015261388c8161346d565b9050919050565b600060208201905081810360008301526138ac81613490565b9050919050565b600060208201905081810360008301526138cc816134b3565b9050919050565b600060208201905081810360008301526138ec816134d6565b9050919050565b6000602082019050818103600083015261390c816134f9565b9050919050565b6000602082019050818103600083015261392c8161351c565b9050919050565b6000602082019050818103600083015261394c8161353f565b9050919050565b6000602082019050818103600083015261396c81613562565b9050919050565b6000602082019050818103600083015261398c81613585565b9050919050565b60006020820190506139a860008301846135a8565b92915050565b60006020820190506139c360008301846135b7565b92915050565b60006139d36139e4565b90506139df8282613d02565b919050565b6000604051905090565b600067ffffffffffffffff821115613a0957613a08613e6b565b5b613a1282613e9a565b9050602081019050919050565b60008190508160005260206000209050919050565b600081519050919050565b600081519050919050565b600082825260208201905092915050565b600082825260208201905092915050565b600081905092915050565b6000613a8282613c44565b9150613a8d83613c44565b9250817f7fffffffffffffffffffffffffffffffffffffffffffffffffffffffffffffff03831360008312151615613ac857613ac7613dde565b5b817f8000000000000000000000000000000000000000000000000000000000000000038312600083121615613b0057613aff613dde565b5b828201905092915050565b6000613b1682613c6e565b9150613b2183613c6e565b9250827fffffffffffffffffffffffffffffffffffffffffffffffffffffffffffffffff03821115613b5657613b55613dde565b5b828201905092915050565b6000613b6c82613c6e565b9150613b7783613c6e565b925082613b8757613b86613e0d565b5b828204905092915050565b6000613b9d82613c6e565b9150613ba883613c6e565b925082821015613bbb57613bba613dde565b5b828203905092915050565b6000613bd182613c78565b9150613bdc83613c78565b925082821015613bef57613bee613dde565b5b828203905092915050565b6000613c0582613c4e565b9050919050565b60008115159050919050565b60007fffffffff0000000000000000000000000000000000000000000000000000000082169050919050565b6000819050919050565b600073ffffffffffffffffffffffffffffffffffffffff82169050919050565b6000819050919050565b600069ffffffffffffffffffff82169050919050565b82818337600083830152505050565b60005b83811015613cbb578082015181840152602081019050613ca0565b83811115613cca576000848401525b50505050565b60006002820490506001821680613ce857607f821691505b60208210811415613cfc57613cfb613e3c565b5b50919050565b613d0b82613e9a565b810181811067ffffffffffffffff82111715613d2a57613d29613e6b565b5b80604052505050565b6000613d3e82613c6e565b91507fffffffffffffffffffffffffffffffffffffffffffffffffffffffffffffffff821415613d7157613d70613dde565b5b600182019050919050565b6000613d8782613c44565b9150613d9283613c44565b925082613da257613da1613e0d565b5b828207905092915050565b6000613db882613c6e565b9150613dc383613c6e565b925082613dd357613dd2613e0d565b5b828206905092915050565b7f4e487b7100000000000000000000000000000000000000000000000000000000600052601160045260246000fd5b7f4e487b7100000000000000000000000000000000000000000000000000000000600052601260045260246000fd5b7f4e487b7100000000000000000000000000000000000000000000000000000000600052602260045260246000fd5b7f4e487b7100000000000000000000000000000000000000000000000000000000600052604160045260246000fd5b6000601f19601f8301169050919050565b7f4552433732313a207472616e7366657220746f206e6f6e20455243373231526560008201527f63656976657220696d706c656d656e7465720000000000000000000000000000602082015250565b7f4f776e61626c653a206e6577206f776e657220697320746865207a65726f206160008201527f6464726573730000000000000000000000000000000000000000000000000000602082015250565b7f4552433732313a207472616e736665722066726f6d20696e636f72726563742060008201527f6f776e6572000000000000000000000000000000000000000000000000000000602082015250565b7f4552433732313a20746f6b656e20616c7265616479206d696e74656400000000600082015250565b7f4552433732313a207472616e7366657220746f20746865207a65726f2061646460008201527f7265737300000000000000000000000000000000000000000000000000000000602082015250565b7f4552433732313a20617070726f766520746f2063616c6c657200000000000000600082015250565b7f616c7265616479206578697374696e6720616464726573730000000000000000600082015250565b7f4552433732313a206f70657261746f7220717565727920666f72206e6f6e657860008201527f697374656e7420746f6b656e0000000000000000000000000000000000000000602082015250565b7f4552433732313a20617070726f76652063616c6c6572206973206e6f74206f7760008201527f6e6572206e6f7220617070726f76656420666f7220616c6c0000000000000000602082015250565b7f4552433732313a2062616c616e636520717565727920666f7220746865207a6560008201527f726f206164647265737300000000000000000000000000000000000000000000602082015250565b7f4552433732313a206f776e657220717565727920666f72206e6f6e657869737460008201527f656e7420746f6b656e0000000000000000000000000000000000000000000000602082015250565b7f45524337323155524953746f726167653a2055524920736574206f66206e6f6e60008201527f6578697374656e7420746f6b656e000000000000000000000000000000000000602082015250565b7f506c6561736520726571756573742072616e646f6d206e756d6265722066697260008201527f7374000000000000000000000000000000000000000000000000000000000000602082015250565b7f4552433732313a206d696e7420746f20746865207a65726f2061646472657373600082015250565b7f45524337323155524953746f726167653a2055524920717565727920666f722060008201527f6e6f6e6578697374656e7420746f6b656e000000000000000000000000000000602082015250565b7f4552433732313a20617070726f76656420717565727920666f72206e6f6e657860008201527f697374656e7420746f6b656e0000000000000000000000000000000000000000602082015250565b7f4f776e61626c653a2063616c6c6572206973206e6f7420746865206f776e6572600082015250565b7f4552433732314d657461646174613a2055524920717565727920666f72206e6f60008201527f6e6578697374656e7420746f6b656e0000000000000000000000000000000000602082015250565b7f4552433732313a20617070726f76616c20746f2063757272656e74206f776e6560008201527f7200000000000000000000000000000000000000000000000000000000000000602082015250565b7f526f756e64206e6f7420636f6d706c6574650000000000000000000000000000600082015250565b7f4552433732313a207472616e736665722063616c6c6572206973206e6f74206f60008201527f776e6572206e6f7220617070726f766564000000000000000000000000000000602082015250565b61444b81613bfa565b811461445657600080fd5b50565b61446281613c0c565b811461446d57600080fd5b50565b61447981613c18565b811461448457600080fd5b50565b61449081613c44565b811461449b57600080fd5b50565b6144a781613c6e565b81146144b257600080fd5b50565b6144be81613c78565b81146144c957600080fd5b5056fea26469706673582212207da759bd0bc9835a193afd028c5d1e8e8a896726f23ff88fc73635db422801de64736f6c63430008040033697066733a2f2f6261667972656965793564777436666b65637566766d323579347833707075776a756974376e6761776d7037716961337361326c646a6b647563342f6d657461646174612e6a736f6e697066733a2f2f6261667972656962776975636570777066653465777861377233623561667670756576746b736b69686166686f6e626f6575746d33326d696e35612f6d657461646174612e6a736f6e697066733a2f2f6261667972656966677575617a776668367168747763776533617268757662693574376a7134337134797374677a7762733232366a73696e666f692f6d657461646174612e6a736f6e",
  "linkReferences": {},
  "deployedLinkReferences": {}
}