{
  "_format": "hh-sol-artifact-1",
  "contractName": "DNFT",
  "sourceName": "contracts/Dnft.sol",
  "abi": [
    {
      "inputs": [
        {
          "internalType": "uint256",
          "name": "_interval",
          "type": "uint256"
        }
      ],
      "stateMutability": "nonpayable",
      "type": "constructor"
    },
    {
      "anonymous": false,
      "inputs": [
        {
          "indexed": true,
          "internalType": "address",
          "name": "owner",
          "type": "address"
        },
        {
          "indexed": true,
          "internalType": "address",
          "name": "approved",
          "type": "address"
        },
        {
          "indexed": true,
          "internalType": "uint256",
          "name": "tokenId",
          "type": "uint256"
        }
      ],
      "name": "Approval",
      "type": "event"
    },
    {
      "anonymous": false,
      "inputs": [
        {
          "indexed": true,
          "internalType": "address",
          "name": "owner",
          "type": "address"
        },
        {
          "indexed": true,
          "internalType": "address",
          "name": "operator",
          "type": "address"
        },
        {
          "indexed": false,
          "internalType": "bool",
          "name": "approved",
          "type": "bool"
        }
      ],
      "name": "ApprovalForAll",
      "type": "event"
    },
    {
      "anonymous": false,
      "inputs": [
        {
          "indexed": true,
          "internalType": "address",
          "name": "previousOwner",
          "type": "address"
        },
        {
          "indexed": true,
          "internalType": "address",
          "name": "newOwner",
          "type": "address"
        }
      ],
      "name": "OwnershipTransferred",
      "type": "event"
    },
    {
      "anonymous": false,
      "inputs": [
        {
          "indexed": true,
          "internalType": "address",
          "name": "from",
          "type": "address"
        },
        {
          "indexed": true,
          "internalType": "address",
          "name": "to",
          "type": "address"
        },
        {
          "indexed": true,
          "internalType": "uint256",
          "name": "tokenId",
          "type": "uint256"
        }
      ],
      "name": "Transfer",
      "type": "event"
    },
    {
      "inputs": [
        {
          "internalType": "address",
          "name": "to",
          "type": "address"
        },
        {
          "internalType": "uint256",
          "name": "tokenId",
          "type": "uint256"
        }
      ],
      "name": "approve",
      "outputs": [],
      "stateMutability": "nonpayable",
      "type": "function"
    },
    {
      "inputs": [
        {
          "internalType": "address",
          "name": "owner",
          "type": "address"
        }
      ],
      "name": "balanceOf",
      "outputs": [
        {
          "internalType": "uint256",
          "name": "",
          "type": "uint256"
        }
      ],
      "stateMutability": "view",
      "type": "function"
    },
    {
      "inputs": [
        {
          "internalType": "bytes",
          "name": "",
          "type": "bytes"
        }
      ],
      "name": "checkUpkeep",
      "outputs": [
        {
          "internalType": "bool",
          "name": "upkeepNeeded",
          "type": "bool"
        }
      ],
      "stateMutability": "view",
      "type": "function"
    },
    {
      "inputs": [
        {
          "internalType": "uint256",
          "name": "_tokenId",
          "type": "uint256"
        }
      ],
      "name": "flowerStage",
      "outputs": [
        {
          "internalType": "uint256",
          "name": "",
          "type": "uint256"
        }
      ],
      "stateMutability": "view",
      "type": "function"
    },
    {
      "inputs": [
        {
          "internalType": "uint256",
          "name": "tokenId",
          "type": "uint256"
        }
      ],
      "name": "getApproved",
      "outputs": [
        {
          "internalType": "address",
          "name": "",
          "type": "address"
        }
      ],
      "stateMutability": "view",
      "type": "function"
    },
    {
      "inputs": [
        {
          "internalType": "uint256",
          "name": "_tokenId",
          "type": "uint256"
        }
      ],
      "name": "growFlower",
      "outputs": [],
      "stateMutability": "nonpayable",
      "type": "function"
    },
    {
      "inputs": [
        {
          "internalType": "address",
          "name": "owner",
          "type": "address"
        },
        {
          "internalType": "address",
          "name": "operator",
          "type": "address"
        }
      ],
      "name": "isApprovedForAll",
      "outputs": [
        {
          "internalType": "bool",
          "name": "",
          "type": "bool"
        }
      ],
      "stateMutability": "view",
      "type": "function"
    },
    {
      "inputs": [],
      "name": "name",
      "outputs": [
        {
          "internalType": "string",
          "name": "",
          "type": "string"
        }
      ],
      "stateMutability": "view",
      "type": "function"
    },
    {
      "inputs": [],
      "name": "owner",
      "outputs": [
        {
          "internalType": "address",
          "name": "",
          "type": "address"
        }
      ],
      "stateMutability": "view",
      "type": "function"
    },
    {
      "inputs": [
        {
          "internalType": "uint256",
          "name": "tokenId",
          "type": "uint256"
        }
      ],
      "name": "ownerOf",
      "outputs": [
        {
          "internalType": "address",
          "name": "",
          "type": "address"
        }
      ],
      "stateMutability": "view",
      "type": "function"
    },
    {
      "inputs": [
        {
          "internalType": "bytes",
          "name": "",
          "type": "bytes"
        }
      ],
      "name": "performUpkeep",
      "outputs": [],
      "stateMutability": "nonpayable",
      "type": "function"
    },
    {
      "inputs": [],
      "name": "renounceOwnership",
      "outputs": [],
      "stateMutability": "nonpayable",
      "type": "function"
    },
    {
      "inputs": [
        {
          "internalType": "address",
          "name": "to",
          "type": "address"
        },
        {
          "internalType": "string",
          "name": "uri",
          "type": "string"
        }
      ],
      "name": "safeMint",
      "outputs": [],
      "stateMutability": "nonpayable",
      "type": "function"
    },
    {
      "inputs": [
        {
          "internalType": "address",
          "name": "from",
          "type": "address"
        },
        {
          "internalType": "address",
          "name": "to",
          "type": "address"
        },
        {
          "internalType": "uint256",
          "name": "tokenId",
          "type": "uint256"
        }
      ],
      "name": "safeTransferFrom",
      "outputs": [],
      "stateMutability": "nonpayable",
      "type": "function"
    },
    {
      "inputs": [
        {
          "internalType": "address",
          "name": "from",
          "type": "address"
        },
        {
          "internalType": "address",
          "name": "to",
          "type": "address"
        },
        {
          "internalType": "uint256",
          "name": "tokenId",
          "type": "uint256"
        },
        {
          "internalType": "bytes",
          "name": "_data",
          "type": "bytes"
        }
      ],
      "name": "safeTransferFrom",
      "outputs": [],
      "stateMutability": "nonpayable",
      "type": "function"
    },
    {
      "inputs": [
        {
          "internalType": "address",
          "name": "operator",
          "type": "address"
        },
        {
          "internalType": "bool",
          "name": "approved",
          "type": "bool"
        }
      ],
      "name": "setApprovalForAll",
      "outputs": [],
      "stateMutability": "nonpayable",
      "type": "function"
    },
    {
      "inputs": [
        {
          "internalType": "bytes4",
          "name": "interfaceId",
          "type": "bytes4"
        }
      ],
      "name": "supportsInterface",
      "outputs": [
        {
          "internalType": "bool",
          "name": "",
          "type": "bool"
        }
      ],
      "stateMutability": "view",
      "type": "function"
    },
    {
      "inputs": [],
      "name": "symbol",
      "outputs": [
        {
          "internalType": "string",
          "name": "",
          "type": "string"
        }
      ],
      "stateMutability": "view",
      "type": "function"
    },
    {
      "inputs": [
        {
          "internalType": "uint256",
          "name": "tokenId",
          "type": "uint256"
        }
      ],
      "name": "tokenURI",
      "outputs": [
        {
          "internalType": "string",
          "name": "",
          "type": "string"
        }
      ],
      "stateMutability": "view",
      "type": "function"
    },
    {
      "inputs": [
        {
          "internalType": "address",
          "name": "from",
          "type": "address"
        },
        {
          "internalType": "address",
          "name": "to",
          "type": "address"
        },
        {
          "internalType": "uint256",
          "name": "tokenId",
          "type": "uint256"
        }
      ],
      "name": "transferFrom",
      "outputs": [],
      "stateMutability": "nonpayable",
      "type": "function"
    },
    {
      "inputs": [
        {
          "internalType": "address",
          "name": "newOwner",
          "type": "address"
        }
      ],
      "name": "transferOwnership",
      "outputs": [],
      "stateMutability": "nonpayable",
      "type": "function"
    }
  ],
  "bytecode": "0x6080604052604051806060016040528060405180608001604052806050815260200162003a0a6050913981526020016040518060800160405280605081526020016200396a605091398152602001604051806080016040528060508152602001620039ba6050913981525060099060036200007c92919062000253565b503480156200008a57600080fd5b5060405162003a5a38038062003a5a8339818101604052810190620000b09190620003ef565b6040518060400160405280600481526020017f646e6674000000000000000000000000000000000000000000000000000000008152506040518060400160405280600681526020017f5465616d20470000000000000000000000000000000000000000000000000000815250816000908051906020019062000134929190620002ba565b5080600190805190602001906200014d929190620002ba565b50505062000170620001646200018560201b60201c565b6200018d60201b60201c565b80600a8190555042600b8190555050620004a4565b600033905090565b6000600760009054906101000a900473ffffffffffffffffffffffffffffffffffffffff16905081600760006101000a81548173ffffffffffffffffffffffffffffffffffffffff021916908373ffffffffffffffffffffffffffffffffffffffff1602179055508173ffffffffffffffffffffffffffffffffffffffff168173ffffffffffffffffffffffffffffffffffffffff167f8be0079c531659141344cd1fd0a4f28419497f9722a3daafe3b4186f6b6457e060405160405180910390a35050565b828054828255906000526020600020908101928215620002a7579160200282015b82811115620002a657825182908051906020019062000295929190620002ba565b509160200191906001019062000274565b5b509050620002b691906200034b565b5090565b828054620002c89062000425565b90600052602060002090601f016020900481019282620002ec576000855562000338565b82601f106200030757805160ff191683800117855562000338565b8280016001018555821562000338579182015b82811115620003375782518255916020019190600101906200031a565b5b50905062000347919062000373565b5090565b5b808211156200036f576000818162000365919062000392565b506001016200034c565b5090565b5b808211156200038e57600081600090555060010162000374565b5090565b508054620003a09062000425565b6000825580601f10620003b45750620003d5565b601f016020900490600052602060002090810190620003d4919062000373565b5b50565b600081519050620003e9816200048a565b92915050565b6000602082840312156200040257600080fd5b60006200041284828501620003d8565b91505092915050565b6000819050919050565b600060028204905060018216806200043e57607f821691505b602082108114156200045557620004546200045b565b5b50919050565b7f4e487b7100000000000000000000000000000000000000000000000000000000600052602260045260246000fd5b62000495816200041b565b8114620004a157600080fd5b50565b6134b680620004b46000396000f3fe608060405234801561001057600080fd5b50600436106101375760003560e01c806370a08231116100b8578063b88d4fde1161007c578063b88d4fde14610338578063c87b56dd14610354578063d204c45e14610384578063d9f2f7a2146103a0578063e985e9c5146103d0578063f2fde38b1461040057610137565b806370a08231146102a6578063715018a6146102d65780638da5cb5b146102e057806395d89b41146102fe578063a22cb4651461031c57610137565b80632b98af8d116100ff5780632b98af8d146101f257806342842e0e1461020e5780634585e33b1461022a5780636352211e146102465780636e04ff0d1461027657610137565b806301ffc9a71461013c57806306fdde031461016c578063081812fc1461018a578063095ea7b3146101ba57806323b872dd146101d6575b600080fd5b6101566004803603810190610151919061235e565b61041c565b604051610163919061289c565b60405180910390f35b6101746104fe565b60405161018191906128b7565b60405180910390f35b6101a4600480360381019061019f91906123f5565b610590565b6040516101b19190612835565b60405180910390f35b6101d460048036038101906101cf9190612322565b610615565b005b6101f060048036038101906101eb91906121c8565b61072d565b005b61020c600480360381019061020791906123f5565b61078d565b005b610228600480360381019061022391906121c8565b61089c565b005b610244600480360381019061023f91906123b0565b6108bc565b005b610260600480360381019061025b91906123f5565b6108e9565b60405161026d9190612835565b60405180910390f35b610290600480360381019061028b91906123b0565b61099b565b60405161029d919061289c565b60405180910390f35b6102c060048036038101906102bb9190612163565b6109b7565b6040516102cd9190612b19565b60405180910390f35b6102de610a6f565b005b6102e8610af7565b6040516102f59190612835565b60405180910390f35b610306610b21565b60405161031391906128b7565b60405180910390f35b61033660048036038101906103319190612292565b610bb3565b005b610352600480360381019061034d9190612217565b610bc9565b005b61036e600480360381019061036991906123f5565b610c2b565b60405161037b91906128b7565b60405180910390f35b61039e600480360381019061039991906122ce565b610c3d565b005b6103ba60048036038101906103b591906123f5565b610cea565b6040516103c79190612b19565b60405180910390f35b6103ea60048036038101906103e5919061218c565b610dda565b6040516103f7919061289c565b60405180910390f35b61041a60048036038101906104159190612163565b610e6e565b005b60007f80ac58cd000000000000000000000000000000000000000000000000000000007bffffffffffffffffffffffffffffffffffffffffffffffffffffffff1916827bffffffffffffffffffffffffffffffffffffffffffffffffffffffff191614806104e757507f5b5e139f000000000000000000000000000000000000000000000000000000007bffffffffffffffffffffffffffffffffffffffffffffffffffffffff1916827bffffffffffffffffffffffffffffffffffffffffffffffffffffffff1916145b806104f757506104f682610f66565b5b9050919050565b60606000805461050d90612d84565b80601f016020809104026020016040519081016040528092919081815260200182805461053990612d84565b80156105865780601f1061055b57610100808354040283529160200191610586565b820191906000526020600020905b81548152906001019060200180831161056957829003601f168201915b5050505050905090565b600061059b82610fd0565b6105da576040517f08c379a00000000000000000000000000000000000000000000000000000000081526004016105d190612a79565b60405180910390fd5b6004600083815260200190815260200160002060009054906101000a900473ffffffffffffffffffffffffffffffffffffffff169050919050565b6000610620826108e9565b90508073ffffffffffffffffffffffffffffffffffffffff168373ffffffffffffffffffffffffffffffffffffffff161415610691576040517f08c379a000000000000000000000000000000000000000000000000000000000815260040161068890612ad9565b60405180910390fd5b8073ffffffffffffffffffffffffffffffffffffffff166106b061103c565b73ffffffffffffffffffffffffffffffffffffffff1614806106df57506106de816106d961103c565b610dda565b5b61071e576040517f08c379a0000000000000000000000000000000000000000000000000000000008152600401610715906129b9565b60405180910390fd5b6107288383611044565b505050565b61073e61073861103c565b826110fd565b61077d576040517f08c379a000000000000000000000000000000000000000000000000000000000815260040161077490612af9565b60405180910390fd5b6107888383836111db565b505050565b600261079882610cea565b106107a257610899565b600060016107af83610cea565b6107b99190612c13565b90506000600982815481106107f7577f4e487b7100000000000000000000000000000000000000000000000000000000600052603260045260246000fd5b90600052602060002001805461080c90612d84565b80601f016020809104026020016040519081016040528092919081815260200182805461083890612d84565b80156108855780601f1061085a57610100808354040283529160200191610885565b820191906000526020600020905b81548152906001019060200180831161086857829003601f168201915b505050505090506108968382611442565b50505b50565b6108b783838360405180602001604052806000815250610bc9565b505050565b600a54600b54426108cd9190612c9a565b11156108e55742600b819055506108e4600061078d565b5b5050565b6000806002600084815260200190815260200160002060009054906101000a900473ffffffffffffffffffffffffffffffffffffffff169050600073ffffffffffffffffffffffffffffffffffffffff168173ffffffffffffffffffffffffffffffffffffffff161415610992576040517f08c379a0000000000000000000000000000000000000000000000000000000008152600401610989906129f9565b60405180910390fd5b80915050919050565b6000600a54600b54426109ae9190612c9a565b11905092915050565b60008073ffffffffffffffffffffffffffffffffffffffff168273ffffffffffffffffffffffffffffffffffffffff161415610a28576040517f08c379a0000000000000000000000000000000000000000000000000000000008152600401610a1f906129d9565b60405180910390fd5b600360008373ffffffffffffffffffffffffffffffffffffffff1673ffffffffffffffffffffffffffffffffffffffff168152602001908152602001600020549050919050565b610a7761103c565b73ffffffffffffffffffffffffffffffffffffffff16610a95610af7565b73ffffffffffffffffffffffffffffffffffffffff1614610aeb576040517f08c379a0000000000000000000000000000000000000000000000000000000008152600401610ae290612a99565b60405180910390fd5b610af560006114b6565b565b6000600760009054906101000a900473ffffffffffffffffffffffffffffffffffffffff16905090565b606060018054610b3090612d84565b80601f0160208091040260200160405190810160405280929190818152602001828054610b5c90612d84565b8015610ba95780601f10610b7e57610100808354040283529160200191610ba9565b820191906000526020600020905b815481529060010190602001808311610b8c57829003601f168201915b5050505050905090565b610bc5610bbe61103c565b838361157c565b5050565b610bda610bd461103c565b836110fd565b610c19576040517f08c379a0000000000000000000000000000000000000000000000000000000008152600401610c1090612af9565b60405180910390fd5b610c25848484846116e9565b50505050565b6060610c3682611745565b9050919050565b610c4561103c565b73ffffffffffffffffffffffffffffffffffffffff16610c63610af7565b73ffffffffffffffffffffffffffffffffffffffff1614610cb9576040517f08c379a0000000000000000000000000000000000000000000000000000000008152600401610cb090612a99565b60405180910390fd5b6000610cc56008611897565b9050610cd160086118a5565b610cdb83826118bb565b610ce58183611442565b505050565b600080610cf683610c2b565b604051602001610d0691906127e3565b6040516020818303038152906040528051906020012090506000600980549050905060005b81811015610dc2578260098281548110610d6e577f4e487b7100000000000000000000000000000000000000000000000000000000600052603260045260246000fd5b90600052602060002001604051602001610d88919061281e565b604051602081830303815290604052805190602001201415610daf57809350505050610dd5565b8080610dba90612de7565b915050610d2b565b50600181610dd09190612c13565b925050505b919050565b6000600560008473ffffffffffffffffffffffffffffffffffffffff1673ffffffffffffffffffffffffffffffffffffffff16815260200190815260200160002060008373ffffffffffffffffffffffffffffffffffffffff1673ffffffffffffffffffffffffffffffffffffffff16815260200190815260200160002060009054906101000a900460ff16905092915050565b610e7661103c565b73ffffffffffffffffffffffffffffffffffffffff16610e94610af7565b73ffffffffffffffffffffffffffffffffffffffff1614610eea576040517f08c379a0000000000000000000000000000000000000000000000000000000008152600401610ee190612a99565b60405180910390fd5b600073ffffffffffffffffffffffffffffffffffffffff168173ffffffffffffffffffffffffffffffffffffffff161415610f5a576040517f08c379a0000000000000000000000000000000000000000000000000000000008152600401610f51906128f9565b60405180910390fd5b610f63816114b6565b50565b60007f01ffc9a7000000000000000000000000000000000000000000000000000000007bffffffffffffffffffffffffffffffffffffffffffffffffffffffff1916827bffffffffffffffffffffffffffffffffffffffffffffffffffffffff1916149050919050565b60008073ffffffffffffffffffffffffffffffffffffffff166002600084815260200190815260200160002060009054906101000a900473ffffffffffffffffffffffffffffffffffffffff1673ffffffffffffffffffffffffffffffffffffffff1614159050919050565b600033905090565b816004600083815260200190815260200160002060006101000a81548173ffffffffffffffffffffffffffffffffffffffff021916908373ffffffffffffffffffffffffffffffffffffffff160217905550808273ffffffffffffffffffffffffffffffffffffffff166110b7836108e9565b73ffffffffffffffffffffffffffffffffffffffff167f8c5be1e5ebec7d5bd14f71427d1e84f3dd0314c0f7b2291e5b200ac8c7c3b92560405160405180910390a45050565b600061110882610fd0565b611147576040517f08c379a000000000000000000000000000000000000000000000000000000000815260040161113e90612999565b60405180910390fd5b6000611152836108e9565b90508073ffffffffffffffffffffffffffffffffffffffff168473ffffffffffffffffffffffffffffffffffffffff16148061119457506111938185610dda565b5b806111d257508373ffffffffffffffffffffffffffffffffffffffff166111ba84610590565b73ffffffffffffffffffffffffffffffffffffffff16145b91505092915050565b8273ffffffffffffffffffffffffffffffffffffffff166111fb826108e9565b73ffffffffffffffffffffffffffffffffffffffff1614611251576040517f08c379a000000000000000000000000000000000000000000000000000000000815260040161124890612919565b60405180910390fd5b600073ffffffffffffffffffffffffffffffffffffffff168273ffffffffffffffffffffffffffffffffffffffff1614156112c1576040517f08c379a00000000000000000000000000000000000000000000000000000000081526004016112b890612959565b60405180910390fd5b6112cc8383836118d9565b6112d7600082611044565b6001600360008573ffffffffffffffffffffffffffffffffffffffff1673ffffffffffffffffffffffffffffffffffffffff16815260200190815260200160002060008282546113279190612c9a565b925050819055506001600360008473ffffffffffffffffffffffffffffffffffffffff1673ffffffffffffffffffffffffffffffffffffffff168152602001908152602001600020600082825461137e9190612c13565b92505081905550816002600083815260200190815260200160002060006101000a81548173ffffffffffffffffffffffffffffffffffffffff021916908373ffffffffffffffffffffffffffffffffffffffff160217905550808273ffffffffffffffffffffffffffffffffffffffff168473ffffffffffffffffffffffffffffffffffffffff167fddf252ad1be2c89b69c2b068fc378daa952ba7f163c4a11628f55a4df523b3ef60405160405180910390a461143d8383836118de565b505050565b61144b82610fd0565b61148a576040517f08c379a000000000000000000000000000000000000000000000000000000000815260040161148190612a19565b60405180910390fd5b806006600084815260200190815260200160002090805190602001906114b1929190611f3d565b505050565b6000600760009054906101000a900473ffffffffffffffffffffffffffffffffffffffff16905081600760006101000a81548173ffffffffffffffffffffffffffffffffffffffff021916908373ffffffffffffffffffffffffffffffffffffffff1602179055508173ffffffffffffffffffffffffffffffffffffffff168173ffffffffffffffffffffffffffffffffffffffff167f8be0079c531659141344cd1fd0a4f28419497f9722a3daafe3b4186f6b6457e060405160405180910390a35050565b8173ffffffffffffffffffffffffffffffffffffffff168373ffffffffffffffffffffffffffffffffffffffff1614156115eb576040517f08c379a00000000000000000000000000000000000000000000000000000000081526004016115e290612979565b60405180910390fd5b80600560008573ffffffffffffffffffffffffffffffffffffffff1673ffffffffffffffffffffffffffffffffffffffff16815260200190815260200160002060008473ffffffffffffffffffffffffffffffffffffffff1673ffffffffffffffffffffffffffffffffffffffff16815260200190815260200160002060006101000a81548160ff0219169083151502179055508173ffffffffffffffffffffffffffffffffffffffff168373ffffffffffffffffffffffffffffffffffffffff167f17307eab39ab6107e8899845ad3d59bd9653f200f220920489ca2b5937696c31836040516116dc919061289c565b60405180910390a3505050565b6116f48484846111db565b611700848484846118e3565b61173f576040517f08c379a0000000000000000000000000000000000000000000000000000000008152600401611736906128d9565b60405180910390fd5b50505050565b606061175082610fd0565b61178f576040517f08c379a000000000000000000000000000000000000000000000000000000000815260040161178690612a59565b60405180910390fd5b60006006600084815260200190815260200160002080546117af90612d84565b80601f01602080910402602001604051908101604052809291908181526020018280546117db90612d84565b80156118285780601f106117fd57610100808354040283529160200191611828565b820191906000526020600020905b81548152906001019060200180831161180b57829003601f168201915b505050505090506000611839611a7a565b905060008151141561184f578192505050611892565b60008251111561188457808260405160200161186c9291906127fa565b60405160208183030381529060405292505050611892565b61188d84611a91565b925050505b919050565b600081600001549050919050565b6001816000016000828254019250508190555050565b6118d5828260405180602001604052806000815250611b38565b5050565b505050565b505050565b60006119048473ffffffffffffffffffffffffffffffffffffffff16611b93565b15611a6d578373ffffffffffffffffffffffffffffffffffffffff1663150b7a0261192d61103c565b8786866040518563ffffffff1660e01b815260040161194f9493929190612850565b602060405180830381600087803b15801561196957600080fd5b505af192505050801561199a57506040513d601f19601f820116820180604052508101906119979190612387565b60015b611a1d573d80600081146119ca576040519150601f19603f3d011682016040523d82523d6000602084013e6119cf565b606091505b50600081511415611a15576040517f08c379a0000000000000000000000000000000000000000000000000000000008152600401611a0c906128d9565b60405180910390fd5b805181602001fd5b63150b7a0260e01b7bffffffffffffffffffffffffffffffffffffffffffffffffffffffff1916817bffffffffffffffffffffffffffffffffffffffffffffffffffffffff191614915050611a72565b600190505b949350505050565b606060405180602001604052806000815250905090565b6060611a9c82610fd0565b611adb576040517f08c379a0000000000000000000000000000000000000000000000000000000008152600401611ad290612ab9565b60405180910390fd5b6000611ae5611a7a565b90506000815111611b055760405180602001604052806000815250611b30565b80611b0f84611bb6565b604051602001611b209291906127fa565b6040516020818303038152906040525b915050919050565b611b428383611d63565b611b4f60008484846118e3565b611b8e576040517f08c379a0000000000000000000000000000000000000000000000000000000008152600401611b85906128d9565b60405180910390fd5b505050565b6000808273ffffffffffffffffffffffffffffffffffffffff163b119050919050565b60606000821415611bfe576040518060400160405280600181526020017f30000000000000000000000000000000000000000000000000000000000000008152509050611d5e565b600082905060005b60008214611c30578080611c1990612de7565b915050600a82611c299190612c69565b9150611c06565b60008167ffffffffffffffff811115611c72577f4e487b7100000000000000000000000000000000000000000000000000000000600052604160045260246000fd5b6040519080825280601f01601f191660200182016040528015611ca45781602001600182028036833780820191505090505b5090505b60008514611d5757600182611cbd9190612c9a565b9150600a85611ccc9190612e30565b6030611cd89190612c13565b60f81b818381518110611d14577f4e487b7100000000000000000000000000000000000000000000000000000000600052603260045260246000fd5b60200101907effffffffffffffffffffffffffffffffffffffffffffffffffffffffffffff1916908160001a905350600a85611d509190612c69565b9450611ca8565b8093505050505b919050565b600073ffffffffffffffffffffffffffffffffffffffff168273ffffffffffffffffffffffffffffffffffffffff161415611dd3576040517f08c379a0000000000000000000000000000000000000000000000000000000008152600401611dca90612a39565b60405180910390fd5b611ddc81610fd0565b15611e1c576040517f08c379a0000000000000000000000000000000000000000000000000000000008152600401611e1390612939565b60405180910390fd5b611e28600083836118d9565b6001600360008473ffffffffffffffffffffffffffffffffffffffff1673ffffffffffffffffffffffffffffffffffffffff1681526020019081526020016000206000828254611e789190612c13565b92505081905550816002600083815260200190815260200160002060006101000a81548173ffffffffffffffffffffffffffffffffffffffff021916908373ffffffffffffffffffffffffffffffffffffffff160217905550808273ffffffffffffffffffffffffffffffffffffffff16600073ffffffffffffffffffffffffffffffffffffffff167fddf252ad1be2c89b69c2b068fc378daa952ba7f163c4a11628f55a4df523b3ef60405160405180910390a4611f39600083836118de565b5050565b828054611f4990612d84565b90600052602060002090601f016020900481019282611f6b5760008555611fb2565b82601f10611f8457805160ff1916838001178555611fb2565b82800160010185558215611fb2579182015b82811115611fb1578251825591602001919060010190611f96565b5b509050611fbf9190611fc3565b5090565b5b80821115611fdc576000816000905550600101611fc4565b5090565b6000611ff3611fee84612b59565b612b34565b90508281526020810184848401111561200b57600080fd5b612016848285612d42565b509392505050565b600061203161202c84612b8a565b612b34565b90508281526020810184848401111561204957600080fd5b612054848285612d42565b509392505050565b60008135905061206b81613424565b92915050565b6000813590506120808161343b565b92915050565b60008135905061209581613452565b92915050565b6000815190506120aa81613452565b92915050565b60008083601f8401126120c257600080fd5b8235905067ffffffffffffffff8111156120db57600080fd5b6020830191508360018202830111156120f357600080fd5b9250929050565b600082601f83011261210b57600080fd5b813561211b848260208601611fe0565b91505092915050565b600082601f83011261213557600080fd5b813561214584826020860161201e565b91505092915050565b60008135905061215d81613469565b92915050565b60006020828403121561217557600080fd5b60006121838482850161205c565b91505092915050565b6000806040838503121561219f57600080fd5b60006121ad8582860161205c565b92505060206121be8582860161205c565b9150509250929050565b6000806000606084860312156121dd57600080fd5b60006121eb8682870161205c565b93505060206121fc8682870161205c565b925050604061220d8682870161214e565b9150509250925092565b6000806000806080858703121561222d57600080fd5b600061223b8782880161205c565b945050602061224c8782880161205c565b935050604061225d8782880161214e565b925050606085013567ffffffffffffffff81111561227a57600080fd5b612286878288016120fa565b91505092959194509250565b600080604083850312156122a557600080fd5b60006122b38582860161205c565b92505060206122c485828601612071565b9150509250929050565b600080604083850312156122e157600080fd5b60006122ef8582860161205c565b925050602083013567ffffffffffffffff81111561230c57600080fd5b61231885828601612124565b9150509250929050565b6000806040838503121561233557600080fd5b60006123438582860161205c565b92505060206123548582860161214e565b9150509250929050565b60006020828403121561237057600080fd5b600061237e84828501612086565b91505092915050565b60006020828403121561239957600080fd5b60006123a78482850161209b565b91505092915050565b600080602083850312156123c357600080fd5b600083013567ffffffffffffffff8111156123dd57600080fd5b6123e9858286016120b0565b92509250509250929050565b60006020828403121561240757600080fd5b60006124158482850161214e565b91505092915050565b61242781612cce565b82525050565b61243681612ce0565b82525050565b600061244782612bd0565b6124518185612be6565b9350612461818560208601612d51565b61246a81612f1d565b840191505092915050565b600061248082612bdb565b61248a8185612bf7565b935061249a818560208601612d51565b6124a381612f1d565b840191505092915050565b60006124b982612bdb565b6124c38185612c08565b93506124d3818560208601612d51565b80840191505092915050565b600081546124ec81612d84565b6124f68186612c08565b94506001821660008114612511576001811461252257612555565b60ff19831686528186019350612555565b61252b85612bbb565b60005b8381101561254d5781548189015260018201915060208101905061252e565b838801955050505b50505092915050565b600061256b603283612bf7565b915061257682612f2e565b604082019050919050565b600061258e602683612bf7565b915061259982612f7d565b604082019050919050565b60006125b1602583612bf7565b91506125bc82612fcc565b604082019050919050565b60006125d4601c83612bf7565b91506125df8261301b565b602082019050919050565b60006125f7602483612bf7565b915061260282613044565b604082019050919050565b600061261a601983612bf7565b915061262582613093565b602082019050919050565b600061263d602c83612bf7565b9150612648826130bc565b604082019050919050565b6000612660603883612bf7565b915061266b8261310b565b604082019050919050565b6000612683602a83612bf7565b915061268e8261315a565b604082019050919050565b60006126a6602983612bf7565b91506126b1826131a9565b604082019050919050565b60006126c9602e83612bf7565b91506126d4826131f8565b604082019050919050565b60006126ec602083612bf7565b91506126f782613247565b602082019050919050565b600061270f603183612bf7565b915061271a82613270565b604082019050919050565b6000612732602c83612bf7565b915061273d826132bf565b604082019050919050565b6000612755602083612bf7565b91506127608261330e565b602082019050919050565b6000612778602f83612bf7565b915061278382613337565b604082019050919050565b600061279b602183612bf7565b91506127a682613386565b604082019050919050565b60006127be603183612bf7565b91506127c9826133d5565b604082019050919050565b6127dd81612d38565b82525050565b60006127ef82846124ae565b915081905092915050565b600061280682856124ae565b915061281282846124ae565b91508190509392505050565b600061282a82846124df565b915081905092915050565b600060208201905061284a600083018461241e565b92915050565b6000608082019050612865600083018761241e565b612872602083018661241e565b61287f60408301856127d4565b8181036060830152612891818461243c565b905095945050505050565b60006020820190506128b1600083018461242d565b92915050565b600060208201905081810360008301526128d18184612475565b905092915050565b600060208201905081810360008301526128f28161255e565b9050919050565b6000602082019050818103600083015261291281612581565b9050919050565b60006020820190508181036000830152612932816125a4565b9050919050565b60006020820190508181036000830152612952816125c7565b9050919050565b60006020820190508181036000830152612972816125ea565b9050919050565b600060208201905081810360008301526129928161260d565b9050919050565b600060208201905081810360008301526129b281612630565b9050919050565b600060208201905081810360008301526129d281612653565b9050919050565b600060208201905081810360008301526129f281612676565b9050919050565b60006020820190508181036000830152612a1281612699565b9050919050565b60006020820190508181036000830152612a32816126bc565b9050919050565b60006020820190508181036000830152612a52816126df565b9050919050565b60006020820190508181036000830152612a7281612702565b9050919050565b60006020820190508181036000830152612a9281612725565b9050919050565b60006020820190508181036000830152612ab281612748565b9050919050565b60006020820190508181036000830152612ad28161276b565b9050919050565b60006020820190508181036000830152612af28161278e565b9050919050565b60006020820190508181036000830152612b12816127b1565b9050919050565b6000602082019050612b2e60008301846127d4565b92915050565b6000612b3e612b4f565b9050612b4a8282612db6565b919050565b6000604051905090565b600067ffffffffffffffff821115612b7457612b73612eee565b5b612b7d82612f1d565b9050602081019050919050565b600067ffffffffffffffff821115612ba557612ba4612eee565b5b612bae82612f1d565b9050602081019050919050565b60008190508160005260206000209050919050565b600081519050919050565b600081519050919050565b600082825260208201905092915050565b600082825260208201905092915050565b600081905092915050565b6000612c1e82612d38565b9150612c2983612d38565b9250827fffffffffffffffffffffffffffffffffffffffffffffffffffffffffffffffff03821115612c5e57612c5d612e61565b5b828201905092915050565b6000612c7482612d38565b9150612c7f83612d38565b925082612c8f57612c8e612e90565b5b828204905092915050565b6000612ca582612d38565b9150612cb083612d38565b925082821015612cc357612cc2612e61565b5b828203905092915050565b6000612cd982612d18565b9050919050565b60008115159050919050565b60007fffffffff0000000000000000000000000000000000000000000000000000000082169050919050565b600073ffffffffffffffffffffffffffffffffffffffff82169050919050565b6000819050919050565b82818337600083830152505050565b60005b83811015612d6f578082015181840152602081019050612d54565b83811115612d7e576000848401525b50505050565b60006002820490506001821680612d9c57607f821691505b60208210811415612db057612daf612ebf565b5b50919050565b612dbf82612f1d565b810181811067ffffffffffffffff82111715612dde57612ddd612eee565b5b80604052505050565b6000612df282612d38565b91507fffffffffffffffffffffffffffffffffffffffffffffffffffffffffffffffff821415612e2557612e24612e61565b5b600182019050919050565b6000612e3b82612d38565b9150612e4683612d38565b925082612e5657612e55612e90565b5b828206905092915050565b7f4e487b7100000000000000000000000000000000000000000000000000000000600052601160045260246000fd5b7f4e487b7100000000000000000000000000000000000000000000000000000000600052601260045260246000fd5b7f4e487b7100000000000000000000000000000000000000000000000000000000600052602260045260246000fd5b7f4e487b7100000000000000000000000000000000000000000000000000000000600052604160045260246000fd5b6000601f19601f8301169050919050565b7f4552433732313a207472616e7366657220746f206e6f6e20455243373231526560008201527f63656976657220696d706c656d656e7465720000000000000000000000000000602082015250565b7f4f776e61626c653a206e6577206f776e657220697320746865207a65726f206160008201527f6464726573730000000000000000000000000000000000000000000000000000602082015250565b7f4552433732313a207472616e736665722066726f6d20696e636f72726563742060008201527f6f776e6572000000000000000000000000000000000000000000000000000000602082015250565b7f4552433732313a20746f6b656e20616c7265616479206d696e74656400000000600082015250565b7f4552433732313a207472616e7366657220746f20746865207a65726f2061646460008201527f7265737300000000000000000000000000000000000000000000000000000000602082015250565b7f4552433732313a20617070726f766520746f2063616c6c657200000000000000600082015250565b7f4552433732313a206f70657261746f7220717565727920666f72206e6f6e657860008201527f697374656e7420746f6b656e0000000000000000000000000000000000000000602082015250565b7f4552433732313a20617070726f76652063616c6c6572206973206e6f74206f7760008201527f6e6572206e6f7220617070726f76656420666f7220616c6c0000000000000000602082015250565b7f4552433732313a2062616c616e636520717565727920666f7220746865207a6560008201527f726f206164647265737300000000000000000000000000000000000000000000602082015250565b7f4552433732313a206f776e657220717565727920666f72206e6f6e657869737460008201527f656e7420746f6b656e0000000000000000000000000000000000000000000000602082015250565b7f45524337323155524953746f726167653a2055524920736574206f66206e6f6e60008201527f6578697374656e7420746f6b656e000000000000000000000000000000000000602082015250565b7f4552433732313a206d696e7420746f20746865207a65726f2061646472657373600082015250565b7f45524337323155524953746f726167653a2055524920717565727920666f722060008201527f6e6f6e6578697374656e7420746f6b656e000000000000000000000000000000602082015250565b7f4552433732313a20617070726f76656420717565727920666f72206e6f6e657860008201527f697374656e7420746f6b656e0000000000000000000000000000000000000000602082015250565b7f4f776e61626c653a2063616c6c6572206973206e6f7420746865206f776e6572600082015250565b7f4552433732314d657461646174613a2055524920717565727920666f72206e6f60008201527f6e6578697374656e7420746f6b656e0000000000000000000000000000000000602082015250565b7f4552433732313a20617070726f76616c20746f2063757272656e74206f776e6560008201527f7200000000000000000000000000000000000000000000000000000000000000602082015250565b7f4552433732313a207472616e736665722063616c6c6572206973206e6f74206f60008201527f776e6572206e6f7220617070726f766564000000000000000000000000000000602082015250565b61342d81612cce565b811461343857600080fd5b50565b61344481612ce0565b811461344f57600080fd5b50565b61345b81612cec565b811461346657600080fd5b50565b61347281612d38565b811461347d57600080fd5b5056fea2646970667358221220adc9a26eb1e17d1c1639e9730e5e278bb3e0751b8b9145593467fb9321ded5ff64736f6c63430008040033697066733a2f2f6261667972656965793564777436666b65637566766d323579347833707075776a756974376e6761776d7037716961337361326c646a6b647563342f6d657461646174612e6a736f6e697066733a2f2f6261667972656962776975636570777066653465777861377233623561667670756576746b736b69686166686f6e626f6575746d33326d696e35612f6d657461646174612e6a736f6e697066733a2f2f6261667972656966677575617a776668367168747763776533617268757662693574376a7134337134797374677a7762733232366a73696e666f692f6d657461646174612e6a736f6e",
  "linkReferences": {},
  "deployedLinkReferences": {}
}